:020000040800F2
:10000000480800205D01000865010008670100083C
:1000100000000000000000000000000000000000E0
:10002000000000000000000000000000690100085E
:1000300000000000000000006B01000885100008AF
:100040006F010008000000006F0100086F01000848
:100050006F0100086F0100086F01000879060008B1
:10006000000000006F0100086F0100086F01000828
:100070006F0100086F0100086F0100080000000018
:100080008D1300086F0100086F010008A512000819
:100090006F0100086F010008111300086F010008CC
:1000A0006F0100086F0100086F0100084117000888
:1000B0006F0100086F01000800F002F800F03EF840
:1000C0000CA030C8083824182D18A246671EAB466D
:1000D00054465D46AC4201D100F030F87E460F3EFA
:1000E0000FCCB6460126334200D0FB1AA246AB46DF
:1000F00033431847242D0000442D0000103A02D34A
:1001000078C878C1FAD8520701D330C830C101D5B8
:1001100004680C60704700000023002400250026BE
:10012000103A01D378C1FBD8520700D330C100D5B3
:100130000B6070471FB51FBD10B510BD00F07EF9F4
:100140001146FFF7F7FF01F0E3FD00F096F903B465
:10015000FFF7F2FF03BC00F09DF90000074880475D
:1001600007480047FEE7FEE7FEE7FEE7FEE7FEE79B
:1001700004480549054A064B704700003112000843
:10018000B900000848020020480800204804002068
:1001900048040020FEB5054610460C46184373D0AF
:1001A000AE468C460020AD1A01469C4167D3664698
:1001B000002701243D46B61A9D4102D313463A4614
:1001C0002124654676462F04360C3E432D0CB61A84
:1001D0009D4104D3150C1B042B43120410346546B7
:1001E00076462F06360A3E432D0AB61A9D4104D3A1
:1001F000150E1B022B4312020834654676462F0764
:1002000036093E432D09B61A9D4104D3150F1B0133
:100210002B431201241D65467646AF07B6083E43C0
:10022000AD08B61A9D4104D3950F9B002B43920055
:10023000A41C65467646EF0776083E436D08B61A5D
:100240009D411AD392185B41641C16E00018764653
:1002500065464941B71A9D410191009009D3604616
:10026000B11A98418E468446009801990025401C99
:100270006941DD0752082A435B08641EE6D57246D1
:10028000634603B0F0BDFFE700200146C046C0460C
:100290002A462346F5E7000030B5441C03E0017808
:1002A000401C00290DD08107F9D10B4BDD0104C89A
:1002B000D11A91432940FAD0001B0A0603D0C01E70
:1002C00030BD001B30BD0A0401D0801E30BD0902C4
:1002D000FCD0401E30BD00000101010100220309D5
:1002E0008B422CD3030A8B4211D300239C464EE051
:1002F00003460B433CD4002243088B4231D303090D
:100300008B421CD3030A8B4201D394463FE0C309BE
:100310008B4201D3CB01C01A524183098B4201D3D6
:100320008B01C01A524143098B4201D34B01C01AC1
:10033000524103098B4201D30B01C01A5241C30839
:100340008B4201D3CB00C01A524183088B4201D3A8
:100350008B00C01A524143088B4201D34B00C01A94
:100360005241411A00D201465241104670475DE0A9
:10037000CA0F00D04942031000D34042534000222C
:100380009C4603098B422DD3030A8B4212D3FC22D5
:10039000890112BA030A8B420CD3890192118B4254
:1003A00008D3890192118B4204D389013AD092116A
:1003B00000E08909C3098B4201D3CB01C01A524125
:1003C00083098B4201D38B01C01A524143098B42EE
:1003D00001D34B01C01A524103098B4201D30B01D7
:1003E000C01A5241C3088B4201D3CB00C01A5241FC
:1003F00083088B4201D38B00C01A5241D9D24308E3
:100400008B4201D34B00C01A5241411A00D201461F
:10041000634652415B10104601D34042002B00D589
:100420004942704763465B1000D3404201B500204B
:10043000C046C04602BD704770477047754600F021
:1004400025F8AE46050069465346C008C0008546FB
:1004500018B020B5FFF78CFE60BC00274908B646EF
:100460000026C0C5C0C5C0C5C0C5C0C5C0C5C0C5C3
:10047000C0C5403D49008D46704710B50446C04692
:10048000C0462046FFF763FE10BD000000487047DD
:10049000E801002001491820ABBEFEE7260002005B
:1004A000704770B50022002107230020002400BF00
:1004B0002BE00925ED06AD69202635430926F60611
:1004C000B56135462D6940263540002D05D0012502
:1004D0009D40ECB2054625432846002101E04D1C15
:1004E000E9B21429FBDB0925ED06AD6A2026354368
:1004F0000926F606B562002101E04D1CE9B2142977
:10050000FBDB5D1EEBB2551CEAB2082AD1DB0925E4
:10051000ED06AD6A202635430926F606B562354656
:10052000AD6A802635430926F606B562002101E052
:100530004D1CE9B23229FBDB70BD30B5034600210A
:100540000020072200BF36E01C461441E407E40FF8
:10055000002C08D00924E406A46980252C43092531
:10056000ED06AC6107E00924E406A46A80252C436B
:100570000925ED06AC620924E406A46920252C4374
:100580000925ED06AC61002001E0441CA0B2022860
:10059000FBDB0924E406A46A20252C430925ED068B
:1005A000AC62002001E0441CA0B20228FBDB541E18
:1005B000A2B24C1CE1B20829C6DB0924E406A46AF5
:1005C00020252C430925ED06AC622C46A46A802523
:1005D0002C430925ED06AC62002001E0441CA0B2CA
:1005E0000528FBDB30BD000010B50E48806A1021E5
:1005F00008430C498862084680691021084309496C
:1006000088610220FFF799FF6020FFF796FF0548F9
:10061000806A10210843034988620A2001F080F9AA
:1006200010BD000000080048F8B50446002500266B
:1006300000271048806A102108430E498862084646
:100640008069102108430B4988610320FFF775FF7B
:100650002046FFF772FF012001F062F9FFF721FF4A
:1006600005460448806A10210843024988622846EA
:10067000F8BD0000000800480CB58148006840083B
:1006800040007F4908607F484069C914084000283D
:100690002FD07C48406908437A494861784800680F
:1006A00040084000764908607748007800285BD110
:1006B000764800780028EBD075480078002819D0DB
:1006C0000020744908806E480068012108436C4985
:1006D000086000206E4908706A4880680121C902DC
:1006E0000843684988600846C068C914884365495A
:1006F000C860C4E062480068400840006049086083
:1007000064480188019168468088E1218900884217
:1007100026DD684680887D210901884220DA002094
:100720005A4908705B490880554800680121084310
:100730005349086001205849087000205749087043
:10074000504880680121C90288434E4988600846A4
:10075000C068C91408434B49C86001204A49087061
:1007600001204B4908708AE04C480078182879DA53
:100770004948007800282BD04148006840084000D4
:100780003F49086043480188019168468088434991
:1007900009784900424A505240480078401C3F497D
:1007A0000870384880680121C902084335498860CB
:1007B0000846C068C91488433249C86000203649D9
:1007C00008702F480068012108432D49086032E075
:1007D0002B48006840084000294908602D480188DE
:1007E000009168460088C82803DC68460088052810
:1007F00008DA0120254908700020234908701E20CE
:10080000264908701F4880680121C90288431D4994
:1008100088600846C068C91408431A49C8600020A7
:100820001C490880164800680121084314490860E3
:10083000012019490870174800887D21C9008842A5
:100840001DDD1E201549087000200F490870012089
:100850000E4908700A4800684008400008490860CE
:100860000DE0FFE7002008490870012007490870E3
:100870000C488069FF21013108430A4988610CBD99
:10088000004801400004014019000020150000202C
:10089000160000200400002017000020180000208F
:1008A000600000200004004810B5132000F038FB61
:1008B00001490988401A10BD52000020F8B50746CA
:1008C0003846FFF7E9FCC4B2214616A000F0A6FAAC
:1008D0000A2001F025F8222000F022FB05462946D7
:1008E00015A000F09BFA0A2001F01AF82819FF2839
:1008F00002DDFF20401BC4B2002604E0B95D0020E9
:1009000000F028FB761CA642F8D3291910A000F0AD
:1009100085FA0A2001F004F82819C1B2222000F05B
:1009200019FBF8BD0A537472696E672073697A65A2
:10093000203D2025640000000A43757272656E74C4
:10094000206C656E677468203D20256400000000FF
:100950000A4E6577206C656E677468203D202564BB
:100960000000000038B52548806A0121890208434B
:1009700022498862002000E0401C7D21C900884295
:10098000FADB1E4880690121890208431B498861FE
:10099000422000F0C5FA0446122C01D0002038BDD8
:1009A00001F0E6FA164800F0EFFA00210E2000F000
:1009B000D1FA00210F2000F0CDFA0C2000F0B0FA9F
:1009C00003210843054629460C2000F0C3FA042100
:1009D000262000F0BFFA112001F0B9FA00F0F4FF70
:1009E000262000F09DFA054606A30022114600903D
:1009F000104600F0BDF90120D1E7000000040048D6
:100A0000C0CA893654454D503A2025640000000084
:100A100010B5FFF749FF002801D1401E10BD044862
:100A20000088401C02490880002000F079FAF5E7B0
:100A30005200002010B50446204601F09FFA10BD78
:100A400070B50446002500BF0AE0002C03D1002049
:100A500001F0BEFA02E0FF2001F0BAFA681C85B28C
:100A6000012080028542F0DB70BD000010B50C480B
:100A70008069012108430A498861012000F059FF7B
:100A80000748806A01210843054988620A2000F06E
:100A900050FF03488069012108430149886110BD66
:100AA0000004004810B5FFF7E1FFAE20FFF7C2FFDA
:100AB0000020FFF7BFFF1020FFF7BCFF4020FFF72B
:100AC000B9FFB020FFF7B6FF8120FFF7B3FFFF208B
:100AD000FFF7B0FFA120FFF7ADFFA620FFF7AAFFA9
:100AE000C920FFF7A7FFA820FFF7A4FF3F20FFF7CB
:100AF000A1FFD320FFF79EFF0020FFF79BFFD5202B
:100B0000FFF798FF8020FFF795FFD920FFF792FFAE
:100B1000F120FFF78FFF2020FFF78CFF0020FFF769
:100B200089FFDA20FFF786FF1220FFF783FFDB2023
:100B3000FFF780FF4020FFF77DFF8D20FFF77AFF52
:100B40001420FFF777FFAF20FFF774FF10BD000000
:100B50000EB50220002103220B4600920191029063
:100B6000012205217F4800F03DFA022000210322E6
:100B70000B4600920191029001220621794800F073
:100B800031FA0220002103220B46009201910290CB
:100B900001220721734800F025FA022000210322D8
:100BA0000B46009201910290012208216D4800F04D
:100BB00019FA002003220190034600920290024697
:100BC00001460920C00600F00DFA00200322019022
:100BD000034600920290024601210920C00600F05F
:100BE00001FA00200322019003460092029002467F
:100BF00002210920C00600F0F5F90020032201902F
:100C0000034600920290024603210920C00600F02C
:100C1000E9F900200121032203460092019102908C
:100C200002460D21504800F0DDF900200121032289
:100C3000034600920191029002460E214A4800F0BC
:100C4000D1F9002001210322034600920191029074
:100C500002460F21444800F0C5F90020012103227B
:100C60000346009201910290024601463F4800F07F
:100C7000B9F90120002103220B4600920191029054
:100C800002460421384800F0ADF90120002103227A
:100C90000B46009201910290024605210920C006F0
:100CA00000F0A0F900200322019003460092029078
:100CB000024606210920C00600F094F90120002117
:100CC00003220B460092019102900246072109205F
:100CD000C00600F087F90220002103220B46009293
:100CE00001910290012211461E4800F07BF900207C
:100CF00003220190034600920290012205211A4826
:100D000000F070F90220002103220B4600920191AD
:100D100002900122134800F065F90220002103220D
:100D20000B46009201910290012201460D4800F00D
:100D300059F90120002103220B46009201910290F3
:100D400002460B21074800F04DF902200021032242
:100D50000B4600920191029001220A21014800F005
:100D600041F90EBD00040048000800480014004886
:100D70000FB4F0B5A7B006460F46002025900397A4
:100D80002E98029030A824902F98FFF785FAC5B2CC
:100D9000002420E02F98005D252816D1601C2F9993
:100DA000085C64280CD124980188001D249088B226
:100DB0002690E1B204A8269A00F0C2FE044608E09C
:100DC0002F98005D04A9085503E02F98005D04A941
:100DD0000855601C84B2AC42DCDB002508E004A8A6
:100DE000405D642802D1202004A94855681CC5B282
:100DF000802DF4D3E1B2009604A8029B039A00F080
:100E000075FB002024902598A04205DA002027B029
:100E1000F0BC08BC04B018470120F8E70FB4F8B5DF
:100E2000002507A80090002442E00698005D0A28EB
:100E30000BD10D2000F04CF84019C5B20699085DA1
:100E400000F046F84019C5B230E00698005D25284C
:100E500026D1601C0699085C64280AD10098018894
:100E6000001D8EB20090304600F0B4FD601C84B2CC
:100E70001CE0601C0699085C78280AD1009801885B
:100E8000001D8EB20090F0B200F01AFF601C84B218
:100E90000CE00699085D00F01BF84019C5B205E0AA
:100EA0000699085D00F014F84019C5B2601C84B2C0
:100EB0000698FFF7F1F9A042B7D800200090A542AC
:100EC00003DAF8BC08BC04B018470120F9E70000B9
:100ED000024672B60E480188481C81B2802900DBA8
:100EE00000210C48008881420ED00B48084B1B881B
:100EF000C254074801800948006880231843074B03
:100F0000186062B60120704762B60020FBE700005F
:100F1000560000205A0000206601002000380140E1
:100F200070B5054600240A48806A04210843084930
:100F300088622846FFF701FBFFF7B3FA044604482E
:100F400080690421084302498861204670BD000081
:100F50000004004870B504460D460A48806A042122
:100F6000084308498862802121430846FFF7E5FAD3
:100F70002846FFF7E2FA0348806904210843014943
:100F8000886170BD000400487CB506460020710BE6
:100F9000C0040843F1040E4A002300910190084662
:100FA0000199FFF7F7F804460D462A04200C104378
:100FB000C1B20620FFF7CEFF2A06200A1043C1B2B5
:100FC0000720FFF7C7FFE1B20820FFF7C3FF7CBD92
:100FD0000048E80130B503684D001446AC40234397
:100FE000036030BDFFB504460D461E460B9F2946E3
:100FF0002046029AFFF7EEFF32462946204600F0CF
:101000002AF829462046099A00F01DF8294620466C
:101010000A9A00F010F8012F05D1A0690121A9401A
:101020000843A06106E0022F04D1A06A0121A94073
:101030000843A062FFBD30B5C3684D001446AC4004
:101040002343C36030BD30B583684D001446AC40C7
:101050002343836030BD10B5436814468C4023435E
:10106000436010BD10B500F04BF8FFF771FD00F0C4
:1010700071F900F0C1F900F01DF8E120400200F024
:10108000F9FA10BD09480068002804D00748006834
:10109000401E0649086006480068002804D004483D
:1010A0000068401E024908607047000000000020F0
:1010B0002000002010B500BF0D490E480068FFF762
:1010C0000DF90446601E0C49884201D901200CE04C
:1010D000601E0A4948610321081F00F099FB0020A7
:1010E000064988610720086100200028E4D110BD6E
:1010F000A08601005C000020FFFFFF0000E000E090
:1011000010B51D480068012108431B49086000BF55
:1011100019480068022108400228F9D116484068A1
:101120001549486008464068486008464069012102
:10113000490408431049486108464069012189046F
:1011400008430D494861084640690121C904084324
:1011500009494861084640690121090508430649D3
:1011600048610846406901218905084302494861F0
:1011700000F004F810BD000000100240F8B5002592
:10118000002400260027264840680C210840054618
:10119000002D04D0042D06D0082D2FD107E02148C2
:1011A000214908602EE01F481F4908602AE01C48BA
:1011B00040680F218904084004461948406803210B
:1011C000C90308400646A00C841C1548C06A0007E5
:1011D000000F471C01200004864207D13946114800
:1011E000FFF77CF860431049086006E039460D4877
:1011F000FFF774F860430C49086003E009480A49A6
:10120000086000BF00BF06484068F02108400009A0
:1012100006490D5C04480068E84003490860F8BDD1
:101220000010024000127A005C000020002E00082E
:1012300019480068012108431749086008464068BA
:101240001649084014494860084600681449084097
:1012500011490860084600680121890488430E4945
:101260000860084640683F21090488430A494860ED
:101270000846C06A00090001C8620846006BFF21E9
:1012800014318843044908630846406B4008400015
:101290004863002088607047001002400CB8FF08C7
:1012A000FFFFF6FE1748006902210840002828D0F9
:1012B000144800691449084012490861134800683D
:1012C00000280FD10120114908600920C00680695B
:1012D0000121C90308430921C90688610120094980
:1012E00008620EE00020094908600920C006806AF3
:1012F0000121C90308430921C90688620320014965
:101300000862704700200040FDFDFFFF0C00002038
:101310000E480069C007C00F002816D00B480069AE
:10132000400840000949086109480088401C0849F4
:101330000880084600887D210901884205DD0348B0
:1013400000684008400001490860704700480140BB
:101350000400002010B50B4880690121890408436E
:10136000084988610720084988620120C862C8606E
:1013700008460068400840000860162000F038FA6F
:1013800010BD0000001002400048014015480069EF
:10139000C007C00F002823D0124800694008400051
:1013A0001049086110480088002804D00E480088C1
:1013B000401E0D4908800D480088002804D00B48C5
:1013C0000088401E09490880094800887D210901DC
:1013D000884205DD0748006840084000054908606C
:1013E00070470000000400400800002006000020B4
:1013F000040000200048014010B50B48C0690221DC
:1014000008430949C8610948094988620120C8623E
:10141000C86008460068012108430549086010209B
:1014200000F0E6F910BD000000100240BF5D0000B2
:101430000004004070B500F00FFD0446002C17D0EA
:101440000C484069FF21013148400A4948610AA01F
:10145000FFF7E4FC0A2000F063FA05E0FFF7D8FA92
:10146000C5B22846FFF734FDFFF71EFA0028F5D174
:1014700070BD0000000400480A5265636569766526
:1014800064207061636B6574200A000010B50BA0C6
:10149000FFF7C4FC0A2000F043FA0DA30022114616
:1014A0001046FFF765FC00F0EFF90CA0FFF706FA15
:1014B0000CA0FFF703FA00F045FA10BD0A53656E61
:1014C00064696E67207061636B65743A2000000088
:1014D00053656E646420506B7421000068656C6C09
:1014E0006F200000776F726C64000000FFB5FFB0E2
:1014F000FFB091B0174600240026242500BFAEE0BF
:10150000FFA8006C815DFFA8C163C06B622805D194
:10151000FFA8C06B401EC1B2FFA8C163FFA8C06B8B
:101520002038C1B2FFA8C163002409E0FFA8C06B46
:10153000684300194E49085C02A90855601C84B232
:10154000AC42F3DB002407E0601E02A9085CFFA99F
:101550002C310855601C84B2681E0321FEF7C8FEBA
:10156000C01CA042F0DC002408E020460B3002A999
:10157000085CFFA91C310855601C84B2681E032159
:10158000FEF7B6FEC01CA042EFDC002415E0FFA869
:10159000406E012808D12046173002A9085C80302F
:1015A000FFA90C31085506E02046173002A9085C57
:1015B000FFA90C310855601C84B2681E0321FEF798
:1015C00097FEC01CA042E2DC0C217143C919C8B2CD
:1015D0007F2100F085FC0721FFA8C06C00F0AAFC69
:1015E00003212846FEF784FE401CC1B2FFA82C3020
:1015F000019100F015FD0C217143C919C8B27F217A
:1016000000F06EFCFFA9C96C491CC8B2072100F0AC
:1016100091FC03212846FEF76BFE401CC1B2FFA8D7
:101620001C30019100F0FCFC0C217143C919C8B2B7
:101630007F2100F055FCFFA9C96C891CC8B20721A5
:1016400000F078FC03212846FEF752FE401CC1B290
:10165000FFA80C30019100F0E3FC701C86B2FFA8DB
:10166000406C864200DA4BE77FB07FB015B0F0BD2A
:101670008020000810B504462E4840690121490425
:1016800008432C4948610920C00600680F218904DD
:1016900088430921C9060860084600680521C90475
:1016A00008430921C90608600846406AFF2109016C
:1016B00088430921C90648620846406AFF21113162
:1016C00008430921C90648621A4880690121890333
:1016D00008431849886100201749086048608860FD
:1016E0001448006B80088000124908630846006BAC
:1016F000032108430F4908630F4800680121C9030B
:1017000008430D4908600D48C860084600680C2170
:101710000843094908600846006801210843064952
:10172000086000211B2000F073F81B2000F060F817
:1017300010BD0000001002400038014041030000CD
:1017400010B50021234AD26920231A40202A1AD139
:10175000204A20329188204A1088421C90B24006CC
:10176000400E1E4A128890420DD01D4B1A4C248800
:101770001955194A1288521C174B1A801A461278AA
:101780005206520E1A80134AD26980231A40802AC8
:101790001ED1144A1288144B1B889A4212D0134A45
:1017A000104B1B88D25C0B4B20331A810D4A1288D8
:1017B000521C0C4B1A801A461288802A08DB002221
:1017C0001A8005E0034A126880239A43014B1A608D
:1017D00010BD0000003801405400002058000020D7
:1017E000E60000205A00002056000020660100207C
:1017F000002809DB00BF00BFC206D20E01219140C4
:10180000024A116000BF00BF7047000000E100E025
:1018100010B5002819DB1A4A03231B02D2188308CB
:101820009B00D2588307DC0EFF23A3409A438B070B
:101830001B0E8407E40EA3401A43114B0324240219
:101840001B198408A4001A5118E00E4A03071B0F45
:10185000083B9B089B00D2588307DC0EFF23A34064
:101860009A438B071B0E8407E40EA3401A43054BD3
:101870000407240F083CA408A4001A5110BD00005E
:1018800000E100E01CED00E010B510A0FFF7C6FA83
:101890000A2000F045F800F097F811A0FFF7BEFA13
:1018A0000A2000F03DF800F083F813A0FFF7B6FA25
:1018B0000A2000F035F800210D20FFF74BFB002136
:1018C0002220FFF747FB012010BD00000A5075746D
:1018D00020696E2069646C65206D6F64650000008E
:1018E0000A4578706C696369742068656164657223
:1018F000206D6F64650000000A52657365742046B0
:1019000049464F277300000064214143034A116098
:1019100000BF024909680029FBD170472000002060
:10192000002100E0491C7D22D20042438A42F9D8BE
:101930007047002100E0491C420082188A42FAD810
:101940007047000010B511A0FFF768FA0A20FFF7F2
:10195000E7FF83210120FFF7FDFA00BF1220FFF708
:10196000DFFA082108400028F8D00BA0FFF756FA4C
:101970000A20FFF7D5FF0BA0FFF750FA0A20FFF768
:10198000CFFF08211220FFF7E5FA10BD0A545820B6
:101990004D6F6465000000000A545820646F6E6546
:1019A000000000000A436C656172204952510A0030
:1019B00010B51D20FFF7B4FAFE2108400446214669
:1019C0001D20FFF7C7FA10BD10B581210120FFF7D8
:1019D000C1FA10BDF1B584B0002456490498FEF751
:1019E0007DFCC0B2039053490498FEF777FC049144
:1019F00003983030C0B203900398302803D12420DC
:101A00000390012400E000244B490498FEF766FC93
:101A1000C0B2029048490498FEF760FC0491029815
:101A20003030C0B202900298302805D1002C03D08B
:101A300024200290012400E0002440490498FEF78D
:101A40004DFCC5B23D490498FEF748FC0491284678
:101A50003030C5B2302D04D1002C02D02425012411
:101A600000E000247D21C9000498FEF737FCC6B2CF
:101A70007D21C9000498FEF731FC049130463030D6
:101A8000C6B2302E04D1002C02D02426012400E05E
:101A9000002464210498FEF721FCC7B26421049855
:101AA000FEF71CFC049138463030C7B2302F04D109
:101AB000002C02D02427012400E000240A210498ED
:101AC000FEF70CFCC0B201900A210498FEF706FC58
:101AD000049101983030C0B201900198302804D1AF
:101AE000002C02D02420019001240498C0B2009060
:101AF00000983030C0B20090242D02D02846FFF765
:101B0000E7F9242E02D03046FFF7E2F9242F02D065
:101B10003846FFF7DDF90198242802D00198FFF735
:101B2000D7F90098242802D00098FFF7D1F905B022
:101B3000F0BD000040420F00A08601001027000009
:101B4000F7B586B005460026079C5A490898FEF767
:101B5000C5FBC0B2059057490898FEF7BFFB089136
:101B600005983030C0B205900598302803D1242064
:101B70000590012600E000264F490898FEF7AEFBCD
:101B8000C0B204904C490898FEF7A8FB089104984D
:101B90003030C0B204900498302805D1002E03D014
:101BA00024200490012600E0002644490898FEF70E
:101BB00095FBC7B241490898FEF790FB089138465B
:101BC0003030C7B2302F04D1002E02D02427012696
:101BD00000E000267D21C9000898FEF77FFBC0B217
:101BE00003907D21C9000898FEF778FB08910398BF
:101BF0003030C0B203900398302805D1002E03D0B6
:101C000024200390012600E0002664210898FEF7B6
:101C100065FBC0B2029064210898FEF75FFB089153
:101C200002983030C0B202900298302805D1002EC0
:101C300003D024200290012600E000260A21089803
:101C4000FEF74CFBC0B201900A210898FEF746FB54
:101C5000089101983030C0B201900198302804D129
:101C6000002E02D02420019001260898C0B20090D6
:101C700000983030C0B20090242F00D02F55039828
:101C8000242801D0039828550298242803D00298CC
:101C90002855601CC4B20198242803D00198285507
:101CA000601CC4B20098242801D000982855204612
:101CB00009B0F0BD40420F00A086010010270000CF
:101CC00070B50646F020304004462411092C06DD8C
:101CD00020460A38C4B220464130C4B202E0204651
:101CE0003030C4B235072D0F092D06DD28460A38DD
:101CF000C5B228464130C5B202E028463030C5B2F0
:101D00002046FFF7E5F82846FFF7E2F870BD00002F
:101D100000BF00BF00BFFFF7A5F94448806901215B
:101D2000084342498861424880692021084340496C
:101D300088613E488069042108433C4988613C48E9
:101D4000806A102108433A498862FEF74DFC374803
:101D50008069042108433549886136A0FFF75EF8A1
:101D60002220FEF761FC0446214638A0FFF756F812
:101D70000A20FFF7D5FD0920C006806A202108430C
:101D80000921C90688620846806A80210843092122
:101D9000C906886225488069022108432349886171
:101DA00008468069012108432049886120488069EC
:101DB000202108431E4988611C488069042108438A
:101DC0001A498861FEF76EFE7F21002000F088F836
:101DD0000721002000F0AEF80020FEF731FE134886
:101DE000806A0121C902084310498862FEF7BAFDE2
:101DF0001AE00920C0060069C007C00F002811D1F1
:101E00000A4880692021084308498861FFF73EFBA2
:101E10007D200001FFF778FD0448806A20210843F7
:101E200002498862FFF706FBE3E700000004004870
:101E3000000800480A54657374696E672C20486571
:101E40006C6C6F20576F726C642100000A74656DB2
:101E500070203D202564000070B500251220FFF79A
:101E60005FF80446FFF7A4FD21461220FFF772F841
:101E70004020204000281BD020202040002817D1DF
:101E800013A3002204211046FEF772FF002013491D
:101E900008801320FFF744F805461020FFF740F8AC
:101EA000064631460D20FFF755F8FFF78DFD0CE093
:101EB0000120FFF735F8862807D000210D20FFF715
:101EC00049F886210120FFF745F8284670BD00003B
:101ED000536F6D6574686E6721000000520000202A
:101EE00070B505460C462120FEF7A4FD2846FEF7F6
:101EF000A1FD2046FEF79EFD70BD70B504461B2572
:101F0000782C06DC20462D380521FEF7F1F9C5B204
:101F100007E0F02C05DC0A2120461E30FEF7E8F928
:101F2000C5B2E806C00E2022104301460B20FFF781
:101F300011F870BD70B505460C462220FEF77AFDFB
:101F40002846FEF777FD2046FEF774FD70BD10B5FC
:101F5000044684214D20FEF7FDFF6420FFF7CDFFEE
:101F6000A01E80221043C1B20920FEF7F3FF10BD6E
:101F700010B580210120FEF7EDFF10BD70B50546BC
:101F800000241148806A022108430F4988620F48E3
:101F9000806A202108430D49886200BF01E0601C6F
:101FA000C4B2642CFBDB2846FEF7C7FA002401E02C
:101FB000601CC4B2642CFBDB034880690221084327
:101FC0000149886170BD0000000400480008004815
:101FD00070B505461048806A022108430E498862A0
:101FE0000E488069202108430C498861002401E0E3
:101FF000601C84B2642CFBDB2846FEF79EFA0024AA
:1020000001E0601C84B2642CFBDB03488069022180
:1020100008430149886170BD000400480008004879
:10202000F8B506460F461448806A02210843124953
:102030008862124880692021084310498861002481
:1020400001E0601C84B2642CFBDB002504E0705DC1
:10205000FEF773FA681C85B2BD42F8DB002401E08C
:10206000601C84B2642CFBDB0348806902210843B6
:1020700001498861F8BD00000004004800080048DC
:102080000000000000000000000000000000000050
:102090000000000000000000000000000000000040
:1020A000000000000000000000F0F0000000000050
:1020B00000000000009F9F000000000000000000E2
:1020C0000001010000000000000000FCFC0000FC1A
:1020D000FC00000000000000000000000000000004
:1020E00000000000000000000000000000000000F0
:1020F0008070000000F00000001011F11F1111F1BC
:102100001F1111010000000100000001000000008B
:1021100000E0E03010FC10107060000000E1C3032C
:1021200006FF040C8CF8700000000101010301019E
:1021300001000000E0F01010F0E00080E03010003E
:10214000010382E2330DFEFD0404FCF800010100EE
:102150000000000101010100000000E0F01010107B
:10216000F0E000000070FC8D070E3BE1C1F81C00A0
:102170000000000101010101000101010000000057
:1021800000FCFC0000000000000000000000000057
:10219000000000000000000000000000000000003F
:1021A00000000000E0F01C04000000000000007FC0
:1021B000FF0000000000000000000000030F1C10E2
:1021C00000000000000000000C1CF0E00000000017
:1021D00000000000000080FF7F0000000000000001
:1021E000101C07030000000000001030E07CE0300D
:1021F00010000000000000010000000100000000CD
:1022000000000000000000000000000000000000CE
:1022100000E0E0000000000000020202027F7F02F6
:1022200002020200000000000000000000000000A8
:10223000000000000000000000000000000000009E
:10224000C0C04000000000000000001E07010000A8
:10225000000000000000000000000000000000007E
:102260000000000808080808000000000000000046
:10227000000000000000000000000000000000005E
:10228000000000000000000000C0C00000000000CE
:10229000000000000001010000000000000000003C
:1022A000000080E0381C04000000C0F0380E03007D
:1022B000000000000001010000000000000000001C
:1022C0000080E0601010101060E08000003FFFC050
:1022D00000060600C0FF3F000000000001010101F0
:1022E00000000000000040406020F0F0000000000E
:1022F000000000000000FFFF0000000000000101DE
:102300000101010101010101004060301010103095
:10231000E0C000000080C06030181C0E0701000003
:102320000001010101010101010100000000406004
:102330003010101030E0E000000060E08002020287
:1023400085FD78000000000001010101010000008E
:102350000000000000C070F0F000000000303826DF
:10236000232020FFFF2020000000000000000001CB
:10237000010000000000F0F010101010101000001C
:102380000000C3C30301010183FE7C0000000000C4
:1023900001010101000000000080E0601010103019
:1023A00020000000003FFF8201010183FE7C00004D
:1023B00000000000010101010000000000001010F9
:1023C00010101090D070300000000000E0F83E07C0
:1023D00001000000000000000101000000000000FA
:1023E00000E0E03010101030E0E000000078FD85E3
:1023F00002020285FD7800000000000101010101D8
:102400000000000000C0E03010101030E08000003C
:102410000043C78C080888C4FF3F0000000000018B
:1024200001010100000000000000000000C0C00029
:10243000000000000000000000C1C100000000001A
:10244000000000000001010000000000000000008A
:1024500000C0C000000000000000000000C1C1007A
:1024600000000000000000001E0700000000000047
:1024700000000000008080C0C0406000000E0E0B15
:1024800019113020606040000000000000000000D2
:10249000000000000080808080808080808080003C
:1024A000001010101010101010101000000000008C
:1024B0000000000000000000006040C0808080003C
:1024C00000000000004060203031191B0B0E060098
:1024D00000000000000000000000000080E060102C
:1024E00010101030E0C000000000000090980C06B2
:1024F00003010000000000000101000000000000D6
:102500000080E01088C4444484C830C000FF007ECE
:10251000FF818060FF87403F000003040C0808082B
:102520000C04000000000000E07070E000000000FB
:1025300000E07C1F131010131F7CE000010100005D
:1025400000000000000001010000F0F01010101069
:1025500030E0E0000000FFFF020202020385FC7889
:102560000000010101010101010100000080E060A3
:102570003010101030604000003F7FC0800000002D
:1025800080E04000000000000101010101000000A6
:102590000000F0F01010103060C080000000FFFF5D
:1025A00000000080C07F3F00000001010101010127
:1025B000000000000000F0F01010101010101000CB
:1025C0000000FFFF040404040404040000000101EF
:1025D00001010101010101010000F0F010101010D3
:1025E000101010000000FFFF0404040404040400A1
:1025F0000000010100000000000000000080E06019
:102600003010101030604000003F7FC08000040494
:1026100084FCFC0000000000010101010101000038
:102620000000F0F00000000000F0F0000000FFFFEC
:102630000202020202FFFF00000001010000000090
:10264000000101000000101010F0F0101010000048
:102650000000000000FFFF0000000000000001017A
:102660000101010101010000000000000010101034
:10267000F0F00000000040E080000080FF7F0000DC
:102680000000000001010101000000000000F0F066
:10269000000000C0E07010000000FFFF0C060F1DDE
:1026A00070E0C00000000101000000000000010116
:1026B0000000F0F000000000000000000000FFFF3C
:1026C0000000000000000000000001010101010104
:1026D0000101010000F0F070C00000C070F0F000D7
:1026E00000FFFF00031E1E0300FFFF0000010100AA
:1026F00000000000000101000000F0F0F0C0000048
:1027000000F0F0000000FFFF00030E78E0FFFF0084
:102710000000010100000000010101000080E060F4
:102720003010103060E08000003FFFC080000000EB
:10273000C0FF3F0000000000010101010000000097
:102740000000F0F01010101030E0C0000000FFFF9B
:10275000080808080C070300000001010000000041
:10276000000000000080E0603010103060E0800069
:10277000003FFFC000000000C0FF3F00000000015C
:1027800001030F1D111010000000F0F010101010C8
:1027900030E0C0000000FFFF04040C3CF6C38100E1
:1027A00000000101000000000001010000C0E03055
:1027B000101010107060400000C1C3870606060CA0
:1027C0008CFC780000000001010101010100000003
:1027D0000010101010F0F010101010100000000089
:1027E00000FFFF00000000000000000000010100E9
:1027F0000000000000F0F00000000000F0F0000019
:10280000007FFF8000000080FF7F000000000001CB
:10281000010101010000000010F0E00000000000D4
:1028200000E0F0100000031FF8C0C0F81F03000014
:1028300000000000000101000000000070F0000036
:10284000000000000000F070001FFEC0FC0F0FFC35
:10285000C0FE3F0000000101000000000101000077
:10286000001070E080000080E07010000080C070F8
:10287000390F0F3970C08000000101000000000016
:1028800000010100003070C000000080C0F0300086
:102890000000000107FEFE0701000000000000002C
:1028A0000001010000000000000010101010109046
:1028B000D07030000080C0E0381C07030100000029
:1028C00000010101010101010101010100000000FD
:1028D000FCFC04040404000000000000FFFF0000F2
:1028E00000000000000000001F1F1010101000006A
:1028F00000041C38E0800000000000000000000020
:1029000000030E38E0C000000000000000000000DE
:1029100000010100000004040404FCFC00000000AD
:10292000000000000000FFFF000000000000101089
:1029300010101F1F0000000000000000E03030E019
:102940000000000000101C0701000001071C00002F
:102950000000000000000000000000000000000077
:102960000000000000000000000000000000000067
:102970000000000004040404040404040404040427
:102980000000000004040810000000000000000027
:102990000000000000000000000000000000000037
:1029A00000000000000080C0404040C080000000E7
:1029B00000F0F98C04048444FFFF000000000101D2
:1029C00001010000000101010000FCFC80404040CA
:1029D000C08000000000FFFF8000000080FF7F003B
:1029E00000000101000101010100000000008080E1
:1029F0004040404080800000003EFF80000000001A
:102A0000C1C1000000000000010101010000000040
:102A1000000080C040404080FCFC0000007FFF8040
:102A200000000080FFFF0000000000010101010024
:102A300001010000000080C0404040C08000000054
:102A4000003EFF89080808088B8F00000000000185
:102A50000101010100000000004040F8F84C44442E
:102A600044440400000000FFFF00000000000000DC
:102A7000000000010100000000000000000080C014
:102A800040404080C0C00000007FFF80000000C1C7
:102A9000FFFF00000000081D111111180F070000B2
:102AA0000000FCFC80404040C08000000000FFFFB0
:102AB0000000000000FFFF00000001010000000016
:102AC000000101000000404040CCCC0000000000AC
:102AD0000000000000FFFF000000000000010101F5
:102AE000010101010101010000000040404040CC13
:102AF000CC00000000000000000000FFFF0000000C
:102B0000001010101010180F070000000000FCFC4F
:102B100000000080C04000000000FFFF180C3F7361
:102B2000C080000000000101000000000001010061
:102B30000000040404FCFC00000000000000000091
:102B400000FFFF0000000000000101010101010180
:102B50000101010000C0C0C040C0804040C08000F2
:102B600000FFFF0000FFFF0000FFFF000001010069
:102B700000010100000101000000C0C08040404091
:102B8000C0C080000000FFFF0000000000FFFF0049
:102B90000000010100000000000101000000808031
:102BA00040404040C0800000003EFFC100000000E7
:102BB000C1FF3E0000000000010101010000000013
:102BC0000000C0C080404040C08000000000FFFF07
:102BD0008000000080FF7F0000001F1F0001010136
:102BE00001000000000080C040404080C0C00000E4
:102BF000007FFF8000000080FFFF00000000000158
:102C0000010101001F1F0000000000C08080C040C3
:102C100040404000000000FFFF01000000000000F5
:102C2000000000010100000000000000000080C062
:102C3000404040C0800000000000C78F0C0C1C18F2
:102C4000F870000000000001010101010000000017
:102C500000004040F0F04040404000000000000014
:102C6000FFFF000000000000000000000001010163
:102C7000010100000000C0C00000000000C0C00052
:102C80000000FFFF8000000080FFFF000000000147
:102C9000010101010001010000C0C00000000000AE
:102CA00000C0C0000000071FF8C0C0F81F070000E8
:102CB000000000000001010000000000C0C0000092
:102CC000000000000000C040017FF8E07C061EF01C
:102CD00080FF1F0000000101000000000101000052
:102CE0000040C0800000000080C00000000080E1C3
:102CF000771C1E77E1800000000101000000000049
:102D0000000101000040C000000000000080C04041
:102D10000000030F3CE080F03C07010000001010B1
:102D2000180F0700000000000000404040404040F5
:102D3000C0C000000080C0E0701C0E070100000051
:102D4000000101010101010101010000000000007A
:102D500000F8FC04040404000000080814F7E30071
:102D60000000000000000000000F1F1010101000F5
:102D70000000000000FCFC0000000000000000005B
:102D800000FFFF000000000000000000001F1F0007
:102D900000000000000004040404FCF8000000002F
:102DA000000000000000E3F7140808000000101005
:102DB00010101F0F000000000000000000000000C5
:102DC00000000000000202020202040404040400E5
:102DD00000000000000000000000000000000000F3
:102DE000000000000000000000FC0404040404FCD7
:102DF00000000000000101010101010100000000CC
:102E0000000000000000000001020304060708099A
:102E10000000000001020304382E0008000000201A
:102E200060000000FC000008982E000860000020F0
:102E3000E807000018010008000000000000000082
:102E40000000000000000000000000000001010080
:102E50000000000000000000000000000000000072
:102E6000000000010100000000000001000000005F
:102E7000000000000000000001000001000001014E
:102E8000010101010100000000000000000000003D
:082E90000000000000127A00AE
:040000050800015D91
:00000001FF
