:020000040800F2
:1000000088070020650100086D0100086F010008E5
:1000100000000000000000000000000000000000E0
:100020000000000000000000000000007101000856
:1000300000000000000000007301000829160008FD
:100040007701000800000000770100087701000830
:1000500077010008770100087701000877010008A0
:100060000000000077010008770100087701000810
:100070007701000877010008770100080000000000
:100080001119000877010008770100089518000889
:100090007701000877010008B91800087701000807
:1000A000770100087701000877010008D51B0008D8
:1000B000770100087701000800F002F800F042F82C
:1000C0000CA030C8083824182D18A246671EAB466D
:1000D00054465D46AC4201D100F034F87E460F3EF6
:1000E0000FCCB6460126334200D0FB1AA246AB46DF
:1000F00033431847B0320000D0320000103A02D328
:1001000078C878C1FAD8520701D330C830C101D5B8
:1001100004680C60704700000023002400250026BE
:10012000103A01D378C1FBD8520700D330C100D5B3
:100130000B6070471FB50098019900F0C6FB1FBD0A
:1001400010B510BD00F01BFC1146FFF7F3FF02F0E5
:1001500075F800F033FC03B4FFF7F2FF03BC00F0C6
:1001600063FC00000748804707480047FEE7FEE7BA
:10017000FEE7FEE7FEE7FEE704480549054A064BB1
:100180007047000021180008B9000008880100200D
:1001900088070020880300208803002070B50646E9
:1001A00000F076FB056830460B30C408E400B4422A
:1001B00001D8002070BD68682A46002818D0016860
:1001C000A14211D30B46214608318B4208D3436824
:1001D00001194B6003681B1B0B605160046001E058
:1001E00041685160001D70BD024640680028E6D19C
:1001F0002146284600F054FB0028DCD170BD70B5C4
:100200000446051F00F044FB0068002C1AD0446827
:1002100001E020466468002C01D0AC42F9D30168AB
:100220000A18AA4204D12A6805468918016000E02C
:10023000456028684119A14205D16168696021685B
:100240004018286070BD6C6070BDFEB50546104654
:100250000C46184373D0AE468C460020AD1A0146BA
:100260009C4167D36646002701243D46B61A9D414E
:1002700002D313463A462124654676462F04360CAF
:100280003E432D0CB61A9D4104D3150C1B042B4381
:1002900012041034654676462F06360A3E432D0A70
:1002A000B61A9D4104D3150E1B022B4312020834CB
:1002B000654676462F0736093E432D09B61A9D41FD
:1002C00004D3150F1B012B431201241D65467646EE
:1002D000AF07B6083E43AD08B61A9D4104D3950F4B
:1002E0009B002B439200A41C65467646EF077608D8
:1002F0003E436D08B61A9D411AD392185B41641CA7
:1003000016E00018764665464941B71A9D410191AD
:10031000009009D36046B11A98418E4684460098F1
:1003200001990025401C6941DD0752082A435B08FA
:10033000641EE6D57246634603B0F0BDFFE70020B9
:100340000146C046C0462A462346F5E730B5441C60
:1003500003E00178401C00290DD08107F9D10B4B37
:10036000DD0104C8D11A91432940FAD0001B0A06C6
:1003700003D0C01E30BD001B30BD0A0401D0801E5A
:1003800030BD0902FCD0401E30BD0000010101015A
:10039000002203098B422CD3030A8B4211D3002382
:1003A0009C464EE003460B433CD4002243088B425C
:1003B00031D303098B421CD3030A8B4201D39446E9
:1003C0003FE0C3098B4201D3CB01C01A52418309DC
:1003D0008B4201D38B01C01A524143098B4201D396
:1003E0004B01C01A524103098B4201D30B01C01AC1
:1003F0005241C3088B4201D3CB00C01A524183083B
:100400008B4201D38B00C01A524143088B4201D367
:100410004B00C01A5241411A00D2014652411046C7
:1004200070475DE0CA0F00D04942031000D340423C
:10043000534000229C4603098B422DD3030A8B4272
:1004400012D3FC22890112BA030A8B420CD3890110
:1004500092118B4208D3890192118B4204D38901F6
:100460003AD0921100E08909C3098B4201D3CB0134
:10047000C01A524183098B4201D38B01C01A5241E9
:1004800043098B4201D34B01C01A524103098B42ED
:1004900001D30B01C01A5241C3088B4201D3CB00D8
:1004A000C01A524183088B4201D38B00C01A5241BB
:1004B000D9D243088B4201D34B00C01A5241411A92
:1004C00000D20146634652415B10104601D34042C0
:1004D000002B00D54942704763465B1000D3404271
:1004E00001B50020C046C04602BD70477047704746
:1004F0000246C80FC00781434B0030B54B405B003C
:100500009B0D20D01923DB06C91801231B05994236
:1005100020DB0324A40704251346AB400BD3002B98
:1005200004D1EB0613409B00E34204D4012464078A
:10053000002312195941FF231B0599420BD2C90010
:100540000143500F09E0CB0204D5014308030243E5
:1005500005D0054830BDFF21C905084330BD084618
:1005600007210905884330BD0000C07F1F22030C0E
:1005700002D10F22000402D0030E03D004E00020B9
:10058000014670470002083A030F01D10001121F13
:10059000830F01D18000921E002801DB4000521E13
:1005A000120551184205C012411810467047C10F7C
:1005B000C90700D04042012292071143D6E701212A
:1005C0008907D3E7F0B58B4C0F09254689B0BD43A9
:1005D0007BD01D092646AE43FAD00E465E4027402A
:1005E000F60F3E43254071D024012142FBD0FF2469
:1005F000AD19A4042D1B039501252D05DB02DB0A93
:10060000C9022B43C90A29431E010901040F130F14
:10061000050121431701880B820391432D098C4664
:10062000A90B1E438A039543B30B9A0396433F09D4
:10063000BA0B9403A74302962E467E430497B64610
:100640004E19D7190C460196544305977E43371B24
:100650007646BF1B3601B646BE0B36190096764667
:10066000BC043719009C01D3641C00946400002F63
:1006700001D001263443029E049F754366467E43A3
:100680000496760034196E0034190094029C019E81
:100690001C196643751BAE46069465464519059CB4
:1006A00005956C43594375460891691A0191049E5A
:1006B00001465143A41B0491611A009C0791E10675
:1006C00005D061090122114302E072E06EE0610988
:1006D000089D00272C0A2D066918049D7C412A0AD2
:1006E0002D066918019D6241AC0DAD026D18544193
:1006F000079A910D920255196141029A6446584336
:100700005443069B059A5A43121A131B9A0E9B01D7
:100710005B187A41010B0005C3185141220A2006DB
:1007200044195A419A4200D2491C01204002814298
:1007300003D315230226F64302E014230326F643CF
:100740002020C51AA9401746AF40DA400A43204688
:100750000399D8400914731819055118039A38439E
:10076000D2075140AC4009D00122944006D3002268
:10077000401C5141002C01D1400840001E4A9342C8
:1007800012D3012203989206904207DB052040070E
:1007900009181A480143C012414004E003204007F1
:1007A0000818C10FC907002009B0F0BD0020F107EB
:1007B000FAE705180C464C4111486D42A04115D38B
:1007C00094181A465A410E48644290410ED30120B3
:1007D0004A004005824209D35A00824206D359405A
:1007E000C90F084AC90700201143DDE70020064968
:1007F000DAE700000000FF07FE070000FFFFFF7FB1
:100800000000E0FF0000F07F0000F87F0121C90533
:100810000123411842001B06D3185B0E0AD0C110F9
:100820000722D206891840075242D14201D5520010
:1008300089187047090208D50146002A03D0C10F64
:10084000C9070020704710467047420202D00020BE
:1008500002497047072109050143F4E70000F87FCA
:100860000102C21504D00123DB071943002A0ADB69
:100870009E239A1A02D40846D0407047FF224100B6
:100880001206914201D900207047C017C04370473B
:10089000004870473001002070477047704770472C
:1008A00038B504460A4600206946C046C0460028BE
:1008B00005D002462046009900F040F8012038BDDE
:1008C00010B5012000F054F810BDF8B5C046C04680
:1008D000054600200C461020C0460646A819A04236
:1008E0000DD9324669460020C046C046070001D1F6
:1008F00000F03EF80098A04200D00546C419FFF76A
:10090000C7FFF61D07460560F008C00046192846D7
:1009100000F008F8B44204D031463868A21B00F059
:100920000DF8F8BD00210160416080607047102023
:1009300070470000004870472801002010B50346AA
:10094000406801E003464068002801D08842F9D39E
:100950001868C3188B4206D0CB1CD808C000001DF5
:10096000411A521A0146081D0A60FFF748FC10BDE3
:1009700010B500F031F800F029F810BD7047754649
:10098000FFF7D8FFAE46050069465346C008C000D1
:10099000854618B020B5FFF7EFFB60BC002749087B
:1009A000B6460026C0C5C0C5C0C5C0C5C0C5C0C507
:1009B000C0C5C0C5403D49008D46704710B50446CE
:1009C000C046C0462046FFF7C6FB10BD10B5002844
:1009D00001D000F029F810BD10B5012805D0002184
:1009E00003A000F027F8012010BD09A1F8E70000DE
:1009F00053494752544D454D3A204F7574206F6608
:100A00002068656170206D656D6F7279000000006F
:100A10003A2048656170206D656D6F727920636F53
:100A2000727275707465640001491820ABBEFEE7F0
:100A30002600020070B505460C460A2000E06D1C39
:100A400000F012F8002D06D028780028F7D102E037
:100A5000641C00F009F8002C02D020780028F7D19F
:100A60000A2000F001F870BD08B56946087003203F
:100A7000ABBE08BD244840690121C904084322498E
:100A800048610920C0060068032109028843092142
:100A9000C9060860084600680321090208430921C5
:100AA000C9060860184880690121490208431649AF
:100AB0008861002015498860C8600861886208461E
:100AC000C068491408431149C8600846C068C86036
:100AD00008460069090508430C490861032048617C
:100AE0000846806A102108430849886208468068E1
:100AF00001210843054988600846806804210843AD
:100B00000249886070470000001002400024014044
:100B100070B50022002107230020002400BF2BE035
:100B20000925ED06AD69202635430926F606B5618F
:100B300035462D6940263540002D05D001259D40C4
:100B4000ECB2054625432846002101E04D1CE9B2E0
:100B50001429FBDB0925ED06AD6A2026354309265D
:100B6000F606B562002101E04D1CE9B21429FBDB59
:100B70005D1EEBB2551CEAB2082AD1DB0925ED0651
:100B8000AD6A202635430926F606B5623546AD6ABC
:100B9000802635430926F606B562002101E04D1C8A
:100BA000E9B23229FBDB70BD30B5034600210020DD
:100BB000072200BF36E01C461441E407E40F002C76
:100BC00008D00924E406A46980252C430925ED06F4
:100BD000AC6107E00924E406A46A80252C430925BA
:100BE000ED06AC620924E406A46920252C430925FE
:100BF000ED06AC61002001E0441CA0B20228FBDB42
:100C00000924E406A46A20252C430925ED06AC62DC
:100C1000002001E0441CA0B20228FBDB541EA2B25B
:100C20004C1CE1B20829C6DB0924E406A46A20258D
:100C30002C430925ED06AC622C46A46A80252C4382
:100C40000925ED06AC62002001E0441CA0B2052895
:100C5000FBDB30BD1048806804210840002805D027
:100C60000D488068102108430B49886000BF0A487E
:100C70008068102108400028F9D1074880680221C7
:100C800008430549886000BF03488068C007C00F5B
:100C90000028F9D1704700000024014010B50E482B
:100CA000806A102108430C49886208468069102137
:100CB0000843094988610220FFF776FF6020FFF7AB
:100CC00073FF0548806A10210843034988620A209F
:100CD00001F070F810BD00000008004870B504462F
:100CE00000251048806A102108430E498862084692
:100CF0008069102108430B4988610320FFF754FFE6
:100D00002046FFF751FF012001F054F8FFF700FFE4
:100D100005460448806A1021084302498862284633
:100D200070BD0000000800480D480068012108431C
:100D30000B4908600846806801210843084988601B
:100D40000846C0680121C9030840002806D100BF39
:100D500003480068C007C00F0028F9D070470000A2
:100D60000024014010B5044600200A490880FFF71E
:100D700071FF0020084988620846806A2043886223
:100D8000FFF7D2FF00F060F80249088008460088AB
:100D900010BD0000100000200024014010B500200C
:100DA0001D490860FFF756FF00201C49886208466D
:100DB000806A01214904084318498862FFF7B4FF9B
:100DC00000F042F8144908601549498B154A51430F
:100DD000084611490968FFF7DBFA1349086008461D
:100DE000016812A000F0ECFA0B48016812A000F0B4
:100DF000E7FA0D4800680B49C831884202D9094812
:100E000009490860084800680E49884202D205482E
:100E10000549086010BD00000000002000240140CA
:100E2000A0F7FF1FE40C0000040000200A566464D1
:100E3000203D2025640000000A414443203D202538
:100E400064000000B80B0000F8B500253C26002423
:100E50000F488068042108430D49886000BF0CE0FA
:100E600000BF0B480068042108400028F9D008485A
:100E7000403000680419681CC5B2B542F0DB314649
:100E80002046FFF785FA0446A7B23846F8BD0000B1
:100E900000240140F8B507463846FFF757FAC4B2B8
:100EA000214616A000F08CFA0A2000F083FF2220D1
:100EB00000F006FB0546294615A000F081FA0A203D
:100EC00000F078FF2819FF2802DDFF20401BC4B284
:100ED000002604E0B95D002000F00CFB761CA64261
:100EE000F8D3291910A000F06BFA0A2000F062FF75
:100EF0002819C1B2222000F0FDFAF8BD0A5374721D
:100F0000696E672073697A65203D202564000000C2
:100F10000A43757272656E74206C656E6774682022
:100F20003D202564000000000A4E6577206C656E48
:100F3000677468203D2025640000000070B51F48DC
:100F4000806A0121890208431C498862002000E070
:100F5000401C7D21C9008842FADB184880690121C4
:100F60008902084315498861422000F0A9FA044625
:100F7000122C01D0002070BD01F03AFA104800F0A8
:100F8000D3FA00210E2000F0B5FA00210F2000F066
:100F9000B1FA0C2000F094FA0321084305462946D3
:100FA0000C2000F0A7FA0421262000F0A3FA11205B
:100FB00001F00DFA00F09EFF0120DCE7000400487C
:100FC0008050DE1910B50446204601F017FA10BD16
:100FD00030B5FFB0FFB083B00546002400BF0AE083
:100FE000002D03D1002001A9085502E0FF2001A92E
:100FF0000855601C84B2012080028442F0DB014667
:1010000001A801F025FA7FB07FB003B030BD000029
:1010100010B50C488069012108430A498861012004
:1010200000F0D1FE0748806A012108430549886223
:101030000A2000F0C8FE03488069012108430149E5
:10104000886110BD0004004810B5FFF7E1FFAE2035
:10105000FFF7B8FF0020FFF7B5FF1020FFF7B2FF42
:101060004020FFF7AFFFB020FFF7ACFF8120FFF774
:10107000A9FFFF20FFF7A6FFA120FFF7A3FFA620EF
:10108000FFF7A0FFC920FFF79DFFA820FFF79AFFF9
:101090003F20FFF797FFD320FFF794FF0020FFF7D3
:1010A00091FFD520FFF78EFF8020FFF78BFFD9201F
:1010B000FFF788FFF120FFF785FF2020FFF782FF71
:1010C0000020FFF77FFFDA20FFF77CFF1220FFF7F9
:1010D00079FFDB20FFF776FF4020FFF773FF8D20BD
:1010E000FFF770FF1420FFF76DFFAF20FFF76AFFD7
:1010F00010BD00000EB50220002103220B46009215
:1011000001910290012205217F4800F03BFA022064
:10111000002103220B460092019102900122062138
:10112000794800F02FFA0220002103220B4600929A
:101130000191029001220721734800F023FA022056
:10114000002103220B460092019102900122082106
:101150006D4800F017FA0020032201900346009228
:101160000290024601460920C00600F00BFA00205A
:1011700003220190034600920290024601210920B9
:10118000C00600F0FFF90020032201900346009200
:101190000290024602210920C00600F0F3F9002067
:1011A0000322019003460092029002460321092087
:1011B000C00600F0E7F90020012103220346009257
:1011C0000191029002460D21504800F0DBF9002009
:1011D00001210322034600920191029002460E2152
:1011E0004A4800F0CFF90020012103220346009273
:1011F0000191029002460F21444800F0C3F90020FB
:101200000121032203460092019102900246014609
:101210003F4800F0B7F90120002103220B4600925D
:101220000191029002460421384800F0ABF90120F8
:10123000002103220B4600920191029002460521F3
:101240000920C00600F09EF9002003220190034609
:1012500000920290024606210920C00600F092F991
:101260000120002103220B460092019102900246C8
:1012700007210920C00600F085F902200021032281
:101280000B46009201910290012211461E4800F087
:1012900079F9002003220190034600920290012276
:1012A00005211A4800F06EF90220002103220B46A6
:1012B0000092019102900122134800F063F902208C
:1012C000002103220B460092019102900122014667
:1012D0000D4800F057F90120002103220B4600922F
:1012E0000191029002460B21074800F04BF90220C1
:1012F000002103220B4600920191029001220A2153
:10130000014800F03FF90EBD000400480008004805
:10131000001400480FB4F0B5A7B006460F460020F1
:10132000259003972E98029030A824902F98FFF7CD
:101330000DF8C5B2002420E02F98005D252816D1B5
:10134000601C2F99085C64280CD124980188001D2A
:10135000249088B22690E1B204A8269A00F086FE76
:10136000044608E02F98005D04A9085503E02F9873
:10137000005D04A90855601C84B2AC42DCDB00258A
:1013800008E004A8405D642802D1202004A9485543
:10139000681CC5B2802DF4D3E1B2009604A8029B6C
:1013A000039A00F023FB002024902598A04205DA40
:1013B000002027B0F0BC08BC04B018470120F8E7B3
:1013C0000FB4F8B5002507A80090002442E0069865
:1013D000005D0A280BD10D2000F04CF84019C5B271
:1013E0000699085D00F046F84019C5B230E006984D
:1013F000005D252826D1601C0699085C64280AD166
:1014000000980188001D8EB20090304600F078FDF3
:10141000601C84B21CE0601C0699085C78280AD124
:1014200000980188001D8EB20090F0B200F0DEFE40
:10143000601C84B20CE00699085D00F01BF84019AE
:10144000C5B205E00699085D00F014F84019C5B270
:10145000601C84B20698FEF779FFA042B7D800203E
:101460000090A54203DAF8BC08BC04B0184701207C
:10147000F9E70000024672B60D480188481C81B2A7
:10148000802900DB00210B48008881420ED00A48E9
:10149000074B1B88C2540648018008480068802317
:1014A0001843064B186062B6012070470020FCE725
:1014B0001E00002022000020A8000020003801406B
:1014C00070B5054600240A48806A0421084308498B
:1014D00088622846FFF768FBFFF71AFB04460448BA
:1014E00080690421084302498861204670BD0000DC
:1014F0000004004870B504460D460A48806A04217D
:10150000084308498862802121430846FFF74CFBC5
:101510002846FFF749FB0348806904210843014935
:10152000886170BD000400487CB506460020710B40
:10153000C0040843F1040E4A0023009101900846BC
:101540000199FEF782FE04460D462A04200C104342
:10155000C1B20620FFF7CEFF2A06200A1043C1B20F
:101560000720FFF7C7FFE1B20820FFF7C3FF7CBDEC
:101570000048E80130B503684D001446AC402343F1
:10158000036030BDFFB504460D461E460B9F29463D
:101590002046029AFFF7EEFF32462946204600F029
:1015A0002AF829462046099A00F01DF829462046C7
:1015B0000A9A00F010F8012F05D1A0690121A94075
:1015C0000843A06106E0022F04D1A06A0121A940CE
:1015D0000843A062FFBD30B5C3684D001446AC405F
:1015E0002343C36030BD30B583684D001446AC4022
:1015F0002343836030BD10B5436814468C402343B9
:10160000436010BD10B500F04DF8FFF773FD00F01A
:1016100063F900F097F900F01FF8E120400200F0B4
:1016200073FAFFF727FA10BD09480068002804D0B4
:1016300007480068401E0649086006480068002800
:1016400004D004480068401E02490860704700004A
:10165000140000201800002010B500BF0D490E48EE
:101660000068FEF795FE0446601E0C49884201D9C9
:1016700001200CE0601E0A4948610321081F00F0A8
:1016800011FB00200649886107200861002000281E
:10169000E4D110BDA086010024000020FFFFFF0060
:1016A00000E000E010B530480068012108432E49F1
:1016B000086000BF2C480068022108400228F9D1C8
:1016C00029480068C90508432749086000BF264823
:1016D00000680121490608408842F8D100202249CB
:1016E0004860084640684860084640680521C904CB
:1016F00008431D49486008464068486008464068FD
:10170000486008464068022108431749486000BF06
:1017100015484068082108400828F9D11248406956
:10172000890308431049486108464069012189043A
:1017300008430D494861084640690121C90408432E
:1017400009494861084640690121090508430649DD
:1017500048610846406901218905084302494861FA
:1017600000F004F810BD000000100240F8B500259C
:10177000002400260027264840680C210840054622
:10178000002D04D0042D06D0082D2FD107E02148CC
:10179000214908602EE01F481F4908602AE01C48C4
:1017A00040680F2189040840044619484068032115
:1017B000C90308400646A00C841C1548C06A0007EF
:1017C000000F471C01200004864207D1394611480A
:1017D000FEF7DEFD60431049086006E039460D481B
:1017E000FEF7D6FD60430C49086003E009480A494A
:1017F000086000BF00BF06484068F02108400009AB
:1018000006490D5C04480068E84003490860F8BDDB
:101810000010024000127A00240000208C330008DF
:1018200019480068012108431749086008464068C4
:1018300016490840144948600846006814490840A1
:1018400011490860084600680121890488430E494F
:101850000860084640683F21090488430A494860F7
:101860000846C06A00090001C8620846006BFF21F3
:1018700014318843044908630846406B400840001F
:101880004863002088607047001002400CB8FF08D1
:10189000FFFFF6FE0648006902210840002805D037
:1018A0000348006903490840014908617047000086
:1018B00000200040FDFDFFFF06480069C007C00F83
:1018C000002805D00348006940084000014908612C
:1018D000704700000048014010B50B4880690121A5
:1018E0008904084308498861072008498862012063
:1018F000C862C860084600684008400008601620BA
:1019000000F0C0F910BD0000001002400048014086
:101910000A480069C007C00F00280ED007480069B8
:10192000400840000549086105480088002804D0A7
:1019300003480088401E02490880704700040040A8
:101940001200002010B50B48C06902210843094964
:10195000C8610948094988620120C862C860084610
:1019600000680121084305490860102000F08AF949
:1019700010BD000000100240BF5D000000040040E8
:1019800010B510488069202108430E4988610EA0D7
:10199000FFF716FD0A2000F00DFA00F0BFF90FA0C6
:1019A000FFF778FA0FA0FFF775FA00F015FAFF209D
:1019B000F53000F0F3F90348806A2021084301491B
:1019C000886210BD000400480A53656E64696E6742
:1019D000207061636B65743A2000000068656C6C70
:1019E0006F200000776F726C64000000FFB5E7B0F5
:1019F0000E460024002509204002659024207043F3
:101A000066906698FEF7CAFB6490002700BF00BF8F
:101A1000002001900A2E00DD0A260C207043C0B27F
:101A2000039080216998081AC1B202910299039823
:101A3000884201DA019605E00C210298FEF7B2FC1B
:101A4000C0B20190002419E06798005D6590659828
:101A5000203880B2659000250CE024216598484329
:101A600040192849095C2420604342196498815434
:101A7000681C85B2242DF0DB601C84B2019884427E
:101A8000E2DB002404E0002004A90855601C84B2B5
:101A9000FF2081308442F6DB00241FE018E000259F
:101AA00012E0242078430C216143401841196498C6
:101AB000415CE2010C207843101842196998101813
:101AC00004AA1154681C85B20C2DEADB781CC7B23D
:101AD00001988742E3DB0027601C84B2032CDDDB26
:101AE0007F21002000F03CFC07216A9800F062FC96
:101AF000FF21813104A800F0ABFC6498FEF77FFB66
:101B00006BB0F0BD0C26000810B504462E484069A5
:101B10000121490408432C4948610920C006006896
:101B20000F21890488430921C90608600846006816
:101B30000521C90408430921C90608600846406A0E
:101B4000FF21090188430921C90648620846406A05
:101B5000FF21113108430921C90648621A488069EA
:101B6000012189030843184988610020174908604A
:101B7000486088601448006B800880001249086340
:101B80000846006B032108430F4908630F480068AB
:101B90000121C90308430D4908600D48C860084683
:101BA00000680C21084309490860084600680121C3
:101BB00008430649086000211B2000F073F81B2031
:101BC00000F060F810BD0000001002400038014035
:101BD0004103000010B50021234AD26920231A4096
:101BE000202A1AD1204A20329188204A1088421C8B
:101BF00090B24006400E1E4A128890420DD01D4BF6
:101C00001A4C24881955194A1288521C174B1A80ED
:101C10001A4612785206520E1A80134AD26980234D
:101C20001A40802A1ED1144A1288144B1B889A42EB
:101C300012D0134A104B1B88D25C0B4B20331A81F5
:101C40000D4A1288521C0C4B1A801A461288802AA0
:101C500008DB00221A8005E0034A126880239A43B9
:101C6000014B1A6010BD0000003801401C0000202C
:101C70002000002028000020220000201E0000205C
:101C8000A8000020002809DB00BF00BFC206D20E5A
:101C900001219140024A116000BF00BF704700005F
:101CA00000E100E010B5002819DB1A4A03231B02EB
:101CB000D21883089B00D2588307DC0EFF23A34071
:101CC0009A438B071B0E8407E40EA3401A43114B63
:101CD000032424021B198408A4001A5118E00E4A98
:101CE00003071B0F083B9B089B00D2588307DC0EA1
:101CF000FF23A3409A438B071B0E8407E40EA340E7
:101D00001A43054B0407240F083CA408A4001A51E9
:101D100010BD000000E100E01CED00E010B510A0D7
:101D2000FFF74EFB0A2000F045F800F0E3F811A0A1
:101D3000FFF746FB0A2000F03DF800F085F813A0FD
:101D4000FFF73EFB0A2000F035F800210D20FFF7D9
:101D5000D1FB00212220FFF7CDFB012010BD0000A8
:101D60000A50757420696E2069646C65206D6F641B
:101D7000650000000A4578706C69636974206865C5
:101D800061646572206D6F64650000000A526573BE
:101D90006574204649464F27730000006421414383
:101DA000034A116000BF024909680029FBD170474E
:101DB00018000020002100E0491C7D22D20042438F
:101DC0008A42F9D87047002100E0491C420082187D
:101DD0008A42FAD87047000010B512A0FFF7F0FA57
:101DE0000A20FFF7E7FF83210120FFF783FB00BFF5
:101DF0001220FFF765FB082108400028F8D00CA04E
:101E0000FFF7DEFA0A20FFF7D5FF0CA0FFF7D8FA9C
:101E10000A20FFF7CFFF08211220FFF76BFB0120FC
:101E200010BD00000A5458204D6F6465000000008A
:101E30000A545820646F6E65000000000A436C6508
:101E40006172204952510A0010B51D20FFF738FB7E
:101E5000FE210840044621461D20FFF74BFB10BD24
:101E6000FEB50020029001901A480088002830D169
:101E70001020FEF777FF02900298FEF7A0FB0646BF
:101E8000154A164BFEF79EFB0446FEF731FB019008
:101E900021214906019800F051FB01900198FEF7BD
:101EA000B5FC04460E4A0F4BFEF78CFB0646FEF7C8
:101EB0001FFB01900198FEF7D3FC84B20AA3002215
:101EC000114610460094FFF725FAFF20F53001492E
:101ED0000880FEBD12000020BA490C022B87B63FD5
:101EE0009E5E29CB10C7E13F54454D50203D202533
:101EF0006443000010B581210120FFF7FBFA10BDFB
:101F0000F1B584B0002456490498FEF741FAC0B2F6
:101F1000039053490498FEF73BFA0491039830303C
:101F2000C0B203900398302803D1242003900124E9
:101F300000E000244B490498FEF72AFAC0B2029050
:101F400048490498FEF724FA049102983030C0B250
:101F500002900298302805D1002C03D02420029052
:101F6000012400E0002440490498FEF711FAC5B2AC
:101F70003D490498FEF70CFA049128463030C5B26A
:101F8000302D04D1002C02D02425012400E00024AF
:101F90007D21C9000498FEF7FBF9C6B27D21C90076
:101FA0000498FEF7F5F9049130463030C6B2302E71
:101FB00004D1002C02D02426012400E00024642156
:101FC0000498FEF7E5F9C7B264210498FEF7E0F93A
:101FD000049138463030C7B2302F04D1002C02D0E3
:101FE0002427012400E000240A210498FEF7D0F9F8
:101FF000C0B201900A210498FEF7CAF90491019831
:102000003030C0B201900198302804D1002C02D0A9
:102010002420019001240498C0B200900098303030
:10202000C0B20090242D02D02846FFF723FA242EB8
:1020300002D03046FFF71EFA242F02D03846FFF7B1
:1020400019FA0198242802D00198FFF713FA009892
:10205000242802D00098FFF70DFA05B0F0BD00006B
:1020600040420F00A086010010270000F7B586B09F
:1020700005460026079C5A490898FEF789F9C0B220
:10208000059057490898FEF783F908910598303074
:10209000C0B205900598302803D124200590012670
:1020A00000E000264F490898FEF772F9C0B204908C
:1020B0004C490898FEF76CF9089104983030C0B28A
:1020C00004900498302805D1002E03D024200490D9
:1020D000012600E0002644490898FEF759F9C7B2E6
:1020E00041490898FEF754F9089138463030C7B294
:1020F000302F04D1002E02D02427012600E0002634
:102100007D21C9000898FEF743F9C0B203907D21F4
:10211000C9000898FEF73CF9089103983030C0B226
:1021200003900398302805D1002E03D0242003907B
:10213000012600E0002664210898FEF729F9C0B2C4
:10214000029064210898FEF723F908910298303034
:10215000C0B202900298302805D1002E03D024206E
:102160000290012600E000260A210898FEF710F9E7
:10217000C0B201900A210898FEF70AF90891019867
:102180003030C0B201900198302804D1002E02D026
:102190002420019001260898C0B2009000983030A9
:1021A000C0B20090242F00D02F550398242801D0CE
:1021B000039828550298242803D002982855601CBB
:1021C000C4B20198242803D001982855601CC4B2D9
:1021D0000098242801D000982855204609B0F0BD69
:1021E00040420F00A08601001027000070B506468F
:1021F000F020304004462411092C06DD20460A3820
:10220000C4B220464130C4B202E020463030C4B2ED
:1022100035072D0F092D06DD28460A38C5B2284698
:102220004130C5B202E028463030C5B22046FFF743
:1022300021F92846FFF71EF970BD0000FFF7E2F90B
:10224000FEF7ACFD3B4880690121084339498861AC
:1022500039488069202108433749886135488069B9
:1022600004210843334988613348806A10210843B8
:1022700031498862FEF712FD2E4880690421084327
:102280002C4988612DA0FFF79BF82220FEF726FD40
:10229000044621462FA0FFF793F80A20FFF78AFD96
:1022A0000920C006806A202108430921C9068862E6
:1022B0000846806A802108430921C90688621D48B2
:1022C0008069022108431B49886108468069012111
:1022D0000843184988611848806920210843164935
:1022E0008861144880690421084312498861FEF717
:1022F000ABFE7F21002000F033F80721002000F022
:1023000059F80020FEF764FE0A48806A0121C902DC
:10231000084308498862FEF711FE0AE00920C0065A
:102320000069C007C00F002801D1FFF729FBFFF7A4
:1023300097FDF3E700040048000800480A5465735D
:1023400074696E672C2048656C6C6F20576F726CD7
:10235000642100000A74656D70203D202564000032
:1023600070B505460C462120FEF72CFE2846FEF7E8
:1023700029FE2046FEF726FE70BD70B504461B25DB
:10238000782C06DC20462D380521FEF70BF8C5B267
:1023900007E0F02C05DC0A2120461E30FEF702F88B
:1023A000C5B2E806C00E2022104301460B20FFF7FD
:1023B000A1F870BD70B505460C462220FEF702FE5E
:1023C0002846FEF7FFFD2046FEF7FCFD70BD10B568
:1023D000044684214D20FFF78DF86420FFF7CDFFE0
:1023E000A01E80221043C1B20920FFF783F810BD60
:1023F00010B580210120FFF77DF810BD70B50546AE
:1024000000241148806A022108430F4988620F485E
:10241000806A202108430D49886200BF01E0601CEA
:10242000C4B2642CFBDB2846FEF7BEFB002401E0AF
:10243000601CC4B2642CFBDB0348806902210843A2
:102440000149886170BD0000000400480008004890
:10245000F8B506460F461448806A0221084312491F
:10246000886212488069202108431049886100244D
:1024700001E0601C84B2642CFBDB002504E0705D8D
:10248000FEF792FB681C85B2BD42F8DB002401E038
:10249000601C84B2642CFBDB034880690221084382
:1024A00001498861F8BD00000004004800080048A8
:1024B00070B501250400ED074C4020D4441A01D228
:1024C000001B0919C60D4B00F2B2FF2A29D01B0EC2
:1024D0002CD000020C02D31A2C43DC4028430519EF
:1024E00010D2280A02D3401C6D0611D0761EF605C4
:1024F0008019FF2A00DA70BDC00DC00570BD6940AB
:1025000000F022F801200543C541521C761CE8E783
:1025100064089C40C90161408900E7D10124A043BF
:10252000E4E71B0E440200D0034870BD002AFCD132
:10253000C00FC00770BD00BF0000C07F70B501258F
:102540000400ED074C4022D4441A02D26C40001B18
:102550000919C60D4B00F2B2FF2A4BD01B0E50D00A
:1025600000020C02D31A2C43DC40A843051B05D5FE
:10257000AD0019D36D08761E521E37D0F605280A15
:1025800001D2801970BD70416D0603D070BD6940E5
:10259000FFF794FF9C4009026140490001D0401EB2
:1025A00070BD0124A04370BD6D081DD001202B0C0F
:1025B00001D12D0410302B0E01D12D0208302B0F2C
:1025C00001D12D01001DAB0F01D1AD00801CEB0F1F
:1025D00001D16D00401C6D00361A121A680AF5050B
:1025E0004019012A02DB70BD002070BDC036300AE0
:1025F000C00770BD1B0E440201D1FF2B00D1024861
:1026000070BD002AF0D070BD0000C07F0000000047
:1026100000000000000000000000000000000000BA
:1026200000000000000000000000000000000000AA
:102630000000000000F0F0000000000000000000BA
:10264000009F9F000000000000000000000101004A
:1026500000000000000000FCFC0000FCFC0000008A
:10266000000000000000000000000000000000006A
:10267000000000000000000000000000807000006A
:1026800000F00000001011F11F1111F11F111101D4
:1026900000000001000000010000000000E0E03048
:1026A00010FC10107060000000E1C30306FF040C72
:1026B0008CF870000000010101030101010000001D
:1026C000E0F01010F0E00080E0301000010382E242
:1026D000330DFEFD0404FCF80001010000000001C0
:1026E00001010100000000E0F0101010F0E0000017
:1026F0000070FC8D070E3BE1C1F81C0000000001DA
:1027000001010101000101010000000000FCFC00CA
:1027100000000000000000000000000000000000B9
:1027200000000000000000000000000000000000A9
:10273000E0F01C04000000000000007FFF0000002B
:102740000000000000000000030F1C10000000004B
:10275000000000000C1CF0E0000000000000000081
:10276000000080FF7F00000000000000101C070335
:102770000000000000001030E07CE030100000009D
:102780000000000100000001000000000000000047
:1027900000000000000000000000000000E0E00079
:1027A0000000000000020202027F7F02020202001B
:1027B0000000000000000000000000000000000019
:1027C000000000000000000000000000C0C0400049
:1027D000000000000000001E0701000000000000D3
:1027E00000000000000000000000000000000008E1
:1027F00008080808000000000000000000000000B9
:1028000000000000000000000000000000000000C8
:102810000000000000C0C000000000000000000038
:10282000000101000000000000000000000080E046
:10283000381C04000000C0F0380E03000000000047
:102840000001010000000000000000000080E060C6
:102850001010101060E08000003FFFC0000606006E
:10286000C0FF3F0000000000010101010000000066
:10287000000040406020F0F0000000000000000078
:102880000000FFFF00000000000001010101010144
:10289000010101010040603010101030E0C0000064
:1028A0000080C06030181C0E07010000000101010B
:1028B0000101010101010000000040603010101012
:1028C00030E0E000000060E08002020285FD780058
:1028D00000000000010101010100000000000000F3
:1028E00000C070F0F000000000303826232020FFE8
:1028F000FF20200000000000000000010100000097
:102900000000F0F010101010101000000000C3C301
:102910000301010183FE7C000000000001010101B0
:10292000000000000080E060101010302000000067
:10293000003FFF8201010183FE7C000000000000D7
:1029400001010101000000000000101010101090A3
:10295000D070300000000000E0F83E0701000000E9
:1029600000000000010100000000000000E0E03075
:1029700010101030E0E000000078FD8502020285B2
:10298000FD780000000000010101010100000000CD
:1029900000C0E03010101030E08000000043C78C11
:1029A000080888C4FF3F0000000000010101010089
:1029B000000000000000000000C0C0000000000097
:1029C0000000000000C1C100000000000000000085
:1029D00000010100000000000000000000C0C00075
:1029E000000000000000000000C1C1000000000065
:1029F000000000001E0700000000000000000000B2
:102A0000008080C0C0406000000E0E0B1911302005
:102A100060604000000000000000000000000000B6
:102A20000080808080808080808080000010101076
:102A30001010101010101000000000000000000026
:102A400000000000006040C08080800000000000A6
:102A5000004060203031191B0B0E06000000000002
:102A6000000000000000000080E060101010103036
:102A7000E0C000000000000090980C060301000078
:102A80000000000001010000000000000080E010D4
:102A900088C4444484C830C000FF007EFF81806049
:102AA000FF87403F000003040C0808080C040000E6
:102AB00000000000E07070E00000000000E07C1FFB
:102AC000131010131F7CE000010100000000000043
:102AD000000001010000F0F01010101030E0E000E4
:102AE0000000FFFF020202020385FC7800000101E2
:102AF00001010101010100000080E06030101010B0
:102B000030604000003F7FC08000000080E0400057
:102B10000000000001010101010000000000F0F0D0
:102B20001010103060C080000000FFFF0000008027
:102B3000C07F3F0000000101010101010000000011
:102B40000000F0F010101010101010000000FFFF37
:102B50000404040404040400000001010101010153
:102B6000010101010000F0F0101010101010100011
:102B70000000FFFF04040404040404000000010139
:102B800000000000000000000080E0603010101025
:102B900030604000003F7FC08000040484FCFC00E3
:102BA0000000000001010101010100000000F0F03F
:102BB0000000000000F0F0000000FFFF020202022F
:102BC00002FFFF0000000101000000000001010001
:102BD0000000101010F0F0101010000000000000B5
:102BE00000FFFF00000000000000010101010101E1
:102BF000010100000000000000101010F0F00000C3
:102C0000000040E080000080FF7F00000000000026
:102C100001010101000000000000F0F0000000C010
:102C2000E07010000000FFFF0C060F1D70E0C000F8
:102C30000000010100000000000001010000F0F0B0
:102C400000000000000000000000FFFF0000000086
:102C5000000000000000010101010101010101006B
:102C600000F0F070C00000C070F0F00000FFFF0046
:102C7000031E1E0300FFFF00000101000000000012
:102C8000000101000000F0F0F0C0000000F0F000D2
:102C90000000FFFF00030E78E0FFFF0000000101CD
:102CA00000000000010101000080E06030101030E1
:102CB00060E08000003FFFC080000000C0FF3F00D8
:102CC0000000000001010101000000000000F0F020
:102CD0001010101030E0C0000000FFFF08080808C6
:102CE0000C070300000001010000000000000000CC
:102CF0000080E0603010103060E08000003FFFC0D6
:102D000000000000C0FF3F000000000101030F1D94
:102D1000111010000000F0F01010101030E0C00092
:102D20000000FFFF04040C3CF6C381000000010119
:102D3000000000000001010000C0E0301010101081
:102D40007060400000C1C3870606060C8CFC78004A
:102D5000000000010101010101000000001010103D
:102D600010F0F010101010100000000000FFFF0025
:102D70000000000000000000000101000000000051
:102D800000F0F00000000000F0F00000007FFF8085
:102D900000000080FF7F0000000000010101010130
:102DA0000000000010F0E0000000000000E0F01063
:102DB0000000031FF8C0C0F81F030000000000005F
:102DC000000101000000000070F0000000000000A1
:102DD0000000F070001FFEC0FC0F0FFCC0FE3F00A3
:102DE000000001010000000001010000001070E07F
:102DF00080000080E07010000080C070390F0F3933
:102E000070C080000001010000000000000101000E
:102E1000003070C000000080C0F0300000000001F1
:102E200007FEFE0701000000000000000001010095
:102E3000000000000000101010101090D070300042
:102E40000080C0E0381C0703010000000001010100
:102E5000010101010101010100000000FCFC04046A
:102E60000404000000000000FFFF0000000000005C
:102E7000000000001F1F10101010000000041C387C
:102E8000E0800000000000000000000000030E3899
:102E9000E0C0000000000000000000000001010090
:102EA000000004040404FCFC00000000000000001A
:102EB0000000FFFF000000000000101010101F1F96
:102EC0000000000000000000E03030E000000000E2
:102ED00000101C0701000001071C0000000000009A
:102EE00000000000000000000000000000000000E2
:102EF00000000000000000000000000000000000D2
:102F00000404040404040404040404040000000091
:102F10000404081000000000000000000000000091
:102F200000000000000000000000000000000000A1
:102F3000000080C0404040C08000000000F0F98CDC
:102F400004048444FFFF00000000010101010000AF
:102F5000000101010000FCFC80404040C0800000F6
:102F60000000FFFF8000000080FF7F0000000101E3
:102F7000000101010100000000008080404040404D
:102F800080800000003EFF8000000000C1C1000002
:102F9000000000000101010100000000000080C0ED
:102FA00040404080FCFC0000007FFF80000000806B
:102FB000FFFF00000000000101010100010100000D
:102FC000000080C0404040C080000000003EFF89FB
:102FD000080808088B8F00000000000101010101B2
:102FE00000000000004040F8F84C44444444040011
:102FF000000000FFFF0000000000000000000001D2
:103000000100000000000000000080C0404040803F
:10301000C0C00000007FFF80000000C1FFFF000073
:103020000000081D111111180F0700000000FCFC22
:1030300080404040C08000000000FFFF0000000012
:1030400000FFFF000000010100000000000101007E
:103050000000404040CCCC00000000000000000018
:1030600000FFFF000000000000010101010101015B
:103070000101010000000040404040CCCC000000B5
:1030800000000000000000FFFF0000000010101012
:103090001010180F070000000000FCFC000000806A
:1030A000C04000000000FFFF180C3F73C08000000C
:1030B0000000010100000000000101000000040404
:1030C00004FCFC00000000000000000000FFFF0006
:1030D00000000000000101010101010101010100E6
:1030E00000C0C0C040C0804040C0800000FFFF0062
:1030F00000FFFF0000FFFF000001010000010100D0
:10310000000101000000C0C080404040C0C08000FD
:103110000000FFFF0000000000FFFF0000000101B1
:10312000000000000001010000008080404040409D
:10313000C0800000003EFFC100000000C1FF3E0053
:103140000000000001010101000000000000C0C0FB
:1031500080404040C08000000000FFFF8000000071
:1031600080FF7F0000001F1F00010101010000001F
:10317000000080C040404080C0C00000007FFF8051
:1031800000000080FFFF00000000000101010100BD
:103190001F1F0000000000C08080C0404040400071
:1031A000000000FFFF01000000000000000000011F
:1031B0000100000000000000000080C0404040C04E
:1031C000800000000000C78F0C0C1C18F870000075
:1031D000000000010101010100000000000040406A
:1031E000F0F040404040000000000000FFFF000001
:1031F00000000000000000000001010101010000CA
:103200000000C0C00000000000C0C0000000FFFFC0
:103210008000000080FFFF000000000101010101AB
:103220000001010000C0C0000000000000C0C0009C
:103230000000071FF8C0C0F81F07000000000000D2
:103240000001010000000000C0C0000000000000FC
:103250000000C040017FF8E07C061EF080FF1F00E8
:103260000000010100000000010100000040C080DA
:103270000000000080C00000000080E1771C1E7785
:10328000E1800000000101000000000000010100D9
:103290000040C000000000000080C0400000030F9C
:1032A0003CE080F03C07010000001010180F070000
:1032B000000000000000404040404040C0C000000E
:1032C0000080C0E0701C0E07010000000001010139
:1032D00001010101010100000000000000F8FC04F0
:1032E000040404000000080814F7E30000000000D4
:1032F00000000000000F1F10101010000000000060
:1033000000FCFC00000000000000000000FFFF00C7
:103310000000000000000000001F1F00000000006F
:10332000000004040404FCF8000000000000000099
:103330000000E3F7140808000000101010101F0F21
:10334000000000000000000000000000000000007D
:10335000000202020202040404040400000000004F
:10336000000000000000000000000000000000005D
:103370000000000000FC0404040404FC0000000041
:103380000001010101010101000000000000000036
:103390000000000001020304060708090000000005
:1033A00001020304C43300080000002028000000CC
:1033B000FC000008EC330008280000206007000033
:1033C00018010008000000000000000000000000DC
:1033D00000000000000000000000000000000000ED
:0C33E000000000000000000000127A0055
:040000050800016589
:00000001FF
