:020000040800F2
:10000000900700205D0100086501000867010008F5
:1000100000000000000000000000000000000000E0
:10002000000000000000000000000000690100085E
:1000300000000000000000006B010008BD15000872
:100040006F010008000000006F0100086F01000848
:100050006F0100086F0100086F0100086F010008C0
:10006000000000006F0100086F0100086F01000828
:100070006F0100086F0100086F0100080000000018
:10008000811800086F0100086F0100086F01000867
:100090006F0100086F010008291800086F010008AF
:1000A0006F0100086F0100086F010008991C00082B
:1000B0006F0100086F01000800F002F800F03EF840
:1000C0000CA030C8083824182D18A246671EAB466D
:1000D00054465D46AC4201D100F030F87E460F3EFA
:1000E0000FCCB6460126334200D0FB1AA246AB46DF
:1000F00033431847D02A0000F02A0000103A02D3F8
:1001000078C878C1FAD8520701D330C830C101D5B8
:1001100004680C60704700000023002400250026BE
:10012000103A01D378C1FBD8520700D330C100D5B3
:100130000B6070471FB51FBD10B510BD00F04EFB22
:100140001146FFF7F7FF02F07BF800F066FB03B4FF
:10015000FFF7F2FF03BC00F06DFB0000074880478B
:1001600007480047FEE7FEE7FEE7FEE7FEE7FEE79B
:1001700004480549054A064B70470000B5170008BA
:10018000B900000890010020900700209003002093
:1001900090030020FEB5054610460C46184373D068
:1001A000AE468C460020AD1A01469C4167D3664698
:1001B000002701243D46B61A9D4102D313463A4614
:1001C0002124654676462F04360C3E432D0CB61A84
:1001D0009D4104D3150C1B042B43120410346546B7
:1001E00076462F06360A3E432D0AB61A9D4104D3A1
:1001F000150E1B022B4312020834654676462F0764
:1002000036093E432D09B61A9D4104D3150F1B0133
:100210002B431201241D65467646AF07B6083E43C0
:10022000AD08B61A9D4104D3950F9B002B43920055
:10023000A41C65467646EF0776083E436D08B61A5D
:100240009D411AD392185B41641C16E00018764653
:1002500065464941B71A9D410191009009D3604616
:10026000B11A98418E468446009801990025401C99
:100270006941DD0752082A435B08641EE6D57246D1
:10028000634603B0F0BDFFE700200146C046C0460C
:100290002A462346F5E7000030B5441C03E0017808
:1002A000401C00290DD08107F9D10B4BDD0104C89A
:1002B000D11A91432940FAD0001B0A0603D0C01E70
:1002C00030BD001B30BD0A0401D0801E30BD0902C4
:1002D000FCD0401E30BD00000101010100220309D5
:1002E0008B422CD3030A8B4211D300239C464EE051
:1002F00003460B433CD4002243088B4231D303090D
:100300008B421CD3030A8B4201D394463FE0C309BE
:100310008B4201D3CB01C01A524183098B4201D3D6
:100320008B01C01A524143098B4201D34B01C01AC1
:10033000524103098B4201D30B01C01A5241C30839
:100340008B4201D3CB00C01A524183088B4201D3A8
:100350008B00C01A524143088B4201D34B00C01A94
:100360005241411A00D201465241104670475DE0A9
:10037000CA0F00D04942031000D34042534000222C
:100380009C4603098B422DD3030A8B4212D3FC22D5
:10039000890112BA030A8B420CD3890192118B4254
:1003A00008D3890192118B4204D389013AD092116A
:1003B00000E08909C3098B4201D3CB01C01A524125
:1003C00083098B4201D38B01C01A524143098B42EE
:1003D00001D34B01C01A524103098B4201D30B01D7
:1003E000C01A5241C3088B4201D3CB00C01A5241FC
:1003F00083088B4201D38B00C01A5241D9D24308E3
:100400008B4201D34B00C01A5241411A00D201461F
:10041000634652415B10104601D34042002B00D589
:100420004942704763465B1000D3404201B500204B
:10043000C046C04602BD7047704770470246C80FAD
:10044000C00781434B0030B54B405B009B0D20D073
:100450001923DB06C91801231B05994220DB03245D
:10046000A40704251346AB400BD3002B04D1EB06A5
:1004700013409B00E34204D40124640700231219B3
:100480005941FF231B0599420BD2C9000143500F6C
:1004900009E0CB0204D501430803024305D0054817
:1004A00030BDFF21C905084330BD084607210905B5
:1004B000884330BD0000C07F1F22030C02D10F22F1
:1004C000000402D0030E03D004E000200146704770
:1004D0000002083A030F01D10001121F830F01D15E
:1004E0008000921E002801DB4000521E12055118A8
:1004F0004205C012411810467047C10FC90700D00D
:100500004042012292071143D6E701218907D3E730
:10051000F0B58B4C0F09254689B0BD437BD01D0932
:100520002646AE43FAD00E465E402740F60F3E43C5
:10053000254071D024012142FBD0FF24AD19A40431
:100540002D1B039501252D05DB02DB0AC9022B4378
:10055000C90A29431E010901040F130F0501214394
:100560001701880B820391432D098C46A90B1E436A
:100570008A039543B30B9A0396433F09BA0B94033E
:10058000A74302962E467E430497B6464E19D719C6
:100590000C460196544305977E43371B7646BF1B96
:1005A0003601B646BE0B361900967646BC0437199E
:1005B000009C01D3641C00946400002F01D001262C
:1005C0003443029E049F754366467E43049676003C
:1005D00034196E0034190094029C019E1C19664364
:1005E000751BAE46069465464519059C05956C43FA
:1005F000594375460891691A0191049E0146514379
:10060000A41B0491611A009C0791E10605D06109C1
:100610000122114302E072E06EE06109089D0027AB
:100620002C0A2D066918049D7C412A0A2D0669189A
:10063000019D6241AC0DAD026D185441079A910DB8
:10064000920255196141029A644658435443069BED
:10065000059A5A43121A131B9A0E9B015B187A4192
:10066000010B0005C3185141220A200644195A41C2
:100670009A4200D2491C01204002814203D3152333
:100680000226F64302E014230326F6432020C51A6F
:10069000A9401746AF40DA400A4320460399D840A4
:1006A0000914731819055118039A3843D207514099
:1006B000AC4009D00122944006D30022401C514195
:1006C000002C01D1400840001E4A934212D301225F
:1006D00003989206904207DB0520400709181A4844
:1006E0000143C012414004E0032040070818C10F35
:1006F000C907002009B0F0BD0020F107FAE705188E
:100700000C464C4111486D42A04115D394181A462D
:100710005A410E48644290410ED301204A004005E0
:10072000824209D35A00824206D35940C90F084A6F
:10073000C90700201143DDE700200649DAE7000081
:100740000000FF07FE070000FFFFFF7F0000E0FF43
:100750000000F07F0000F87F0121C9050123411846
:1007600042001B06D3185B0E0AD0C1100722D20626
:10077000891840075242D14201D55200891870476A
:10078000090208D50146002A03D0C10FC90700207D
:10079000704710467047420202D00020024970475D
:1007A000072109050143F4E70000F87F0102C215A3
:1007B00004D00123DB071943002A0ADB9E239A1A7F
:1007C00002D40846D0407047FF22410012069142F1
:1007D00001D900207047C017C0437047754600F02C
:1007E00025F8AE46050069465346C008C000854658
:1007F00018B020B5FFF7BCFC60BC00274908B6461E
:100800000026C0C5C0C5C0C5C0C5C0C5C0C5C0C51F
:10081000C0C5403D49008D46704710B50446C046EE
:10082000C0462046FFF793FC10BD0000004870470B
:100830002C01002001491820ABBEFEE72600020073
:1008400070470000354840690121C9040843334915
:1008500048610920C0060068032109028843092174
:10086000C9060860084600680321090208430921F7
:10087000C9060860294880690121490208432749BF
:100880008861002026498860C8600861886208463F
:10089000C068491408432249C8600846C068C86057
:1008A00008460069090508431D4908610846806833
:1008B000490508431A49886000BF19488068C00F7D
:1008C000C0070028F9D1164880680121084314495F
:1008D000886000BF12480068C007C00F0028F9D028
:1008E00004200F4948610F488068012189050843A9
:1008F0000C4988600A48806A012149040843084974
:1009000088620846806801210843054988600846D6
:100910008068042108430249886070470010024043
:10092000002401400027014070B500220021072368
:100930000020002400BF2BE00925ED06AD6920262C
:1009400035430926F606B56135462D694026354002
:10095000002D05D001259D40ECB2054625432846D3
:10096000002101E04D1CE9B21429FBDB0925ED064D
:10097000AD6A202635430926F606B562002101E05E
:100980004D1CE9B21429FBDB5D1EEBB2551CEAB22B
:10099000082AD1DB0925ED06AD6A20263543092654
:1009A000F606B5623546AD6A802635430926F60659
:1009B000B562002101E04D1CE9B23229FBDB70BDBC
:1009C00030B5034600210020072200BF36E01C4658
:1009D0001441E407E40F002C08D00924E406A469BC
:1009E00080252C430925ED06AC6107E00924E406C7
:1009F000A46A80252C430925ED06AC620924E4068F
:100A0000A46920252C430925ED06AC61002001E0F6
:100A1000441CA0B20228FBDB0924E406A46A2025BA
:100A20002C430925ED06AC62002001E0441CA0B275
:100A30000228FBDB541EA2B24C1CE1B20829C6DB23
:100A40000924E406A46A20252C430925ED06AC629E
:100A50002C46A46A80252C430925ED06AC620020B3
:100A600001E0441CA0B20528FBDB30BD10488068C3
:100A700004210840002805D00D4880681021084353
:100A80000B49886000BF0A48806810210840002890
:100A9000F9D107488068022108430549886000BFF2
:100AA00003488068C007C00F0028F9D170470000D4
:100AB0000024014010B50E48806A102108430C49FB
:100AC000886208468069102108430949886102202C
:100AD000FFF776FF6020FFF773FF0548806A10215B
:100AE0000843034988620A2001F08AF910BD00001A
:100AF0000008004870B5044600251048806A10219F
:100B000008430E49886208468069102108430B4952
:100B100088610320FFF754FF2046FFF751FF0120B3
:100B200001F06EF9FFF700FF05460448806A1021C6
:100B3000084302498862284670BD0000000800484A
:100B40000D480068012108430B4908600846806889
:100B500001210843084988600846C0680121C9038B
:100B60000840002806D100BF03480068C007C00F36
:100B70000028F9D0704700000024014010B5044659
:100B800000200A490880FFF771FF002008498862A9
:100B90000846806A20438862FFF7D2FF00F0B6F86B
:100BA000024908800846008810BD00001800002097
:100BB0000024014038B50020009000250024214881
:100BC000008800283CD120480069012149030840E1
:100BD000002802D101206946C8701B480069012124
:100BE00089030840002802D1012069468870164810
:100BF00000690121C9030840002802D1012069468B
:100C0000487012480069C007C00F002802D10120B7
:100C100069460870002408E06846005D012802D19A
:100C2000A0402843C5B2601CC4B2042CF4DB2B46A0
:100C300007A20021084600F0CBFA64200149088091
:100C400038BD00001C0000200008004800140048C7
:100C500041646472657373203D20256400000000C8
:100C600010B500201D490860FFF700FF00201C4957
:100C700088620846806A012149040843184988624D
:100C8000FFF75EFF00F042F8144908601549498BF0
:100C9000154A5143084611490968FFF71FFB1349DC
:100CA00008600846016812A000F0D8FA0B480168F5
:100CB00012A000F0D3FA0D4800680B49C8318842F1
:100CC00002D9094809490860084800680E49884265
:100CD00002D205480549086010BD00000800002048
:100CE00000240140A0F7FF1FE40C00000C000020CE
:100CF0000A566464203D2025640000000A414443F4
:100D0000203D202564000000B80B0000F8B5002548
:100D10003C2600240F488068042108430D49886060
:100D200000BF0CE000BF0B48006804210840002809
:100D3000F9D00848403000680419681CC5B2B542B3
:100D4000F0DB31462046FFF7C9FA0446A7B2384621
:100D5000F8BD00000024014010B5132000F0FEFA99
:100D600001490988401A10BD1E000020F8B5074649
:100D70003846FFF791FAC4B2222000F0EFFA054698
:100D80002819FF2802DDFF20401BC4B2002604E022
:100D9000B95D002000F0FCFA761CA642F8D32819B1
:100DA000C1B2222000F0F4FAF8BD000070B51F486F
:100DB000806A0121890208431C498862002000E002
:100DC000401C7D21C9008842FADB18488069012156
:100DD0008902084315498861422000F0BFFA0446A1
:100DE000122C01D0002070BD01F0C2FA104800F0B2
:100DF000E9FA00210E2000F0CBFA00210F2000F0CC
:100E0000C7FA0C2000F0AAFA032108430546294638
:100E10000C2000F0BDFA0421262000F0B9FA1120C0
:100E200001F095FA01F068F80120DCE700040048C1
:100E30008050DE1910B5FFF78FFF002801D1401E4A
:100E400010BD04480088401C02490880002000F0C2
:100E500085FAF5E71E00002030B5C1B00546002434
:100E600004E0002001A90855601C84B2FF2CF8DDC5
:100E70007F21002001F034FA0721284601F05AFAB8
:100E8000FF21013101A801F0A3FA41B030BD30B516
:100E9000FFB0FFB083B00546002400BF0AE0002D7C
:100EA00003D1002001A9085502E0FF2001A908553F
:100EB000601C84B2012080028442F0DB014601A85C
:100EC00001F086FA7FB07FB003B030BD10B50C489A
:100ED0008069012108430A498861012000F09CFFD4
:100EE0000748806A01210843054988620A2000F00A
:100EF00093FF03488069012108430149886110BDBF
:100F00000004004810B5FFF7E1FFAE2001F036FA0B
:100F1000002001F033FA102001F030FA402001F0F7
:100F20002DFAB02001F02AFA812001F027FAFF20E3
:100F300001F024FAA12001F021FAA62001F01EFA06
:100F4000C92001F01BFAA82001F018FA3F2001F097
:100F500015FAD32001F012FA002001F00FFAD52083
:100F600001F00CFA802001F009FAD92001F006FA0C
:100F7000F12001F003FA202001F000FA002001F036
:100F8000FDF9DA2001F0FAF9122001F0F7F9DB207F
:100F900001F0F4F9402001F0F1F98D2001F0EEF9B3
:100FA000142001F0EBF9AF2001F0E8F910BD0000CA
:100FB0000EB50220002103220B46009201910290FF
:100FC000012205217F4800F02BFA02200021032294
:100FD0000B4600920191029001220621794800F00F
:100FE0001FFA0220002103220B4600920191029079
:100FF00001220721734800F013FA02200021032286
:101000000B46009201910290012208216D4800F0E8
:1010100007FA002003220190034600920290024644
:1010200001460920C00600F0FBF9002003220190D0
:10103000034600920290024601210920C00600F0FA
:10104000EFF900200322019003460092029002462D
:1010500002210920C00600F0E3F9002003220190DC
:10106000034600920290024603210920C00600F0C8
:10107000D7F900200121032203460092019102903A
:1010800002460D21504800F0CBF900200121032237
:10109000034600920191029002460E214A4800F058
:1010A000BFF9002001210322034600920191029022
:1010B00002460F21444800F0B3F900200121032229
:1010C0000346009201910290024601463F4800F01B
:1010D000A7F90120002103220B4600920191029002
:1010E00002460421384800F09BF901200021032228
:1010F0000B46009201910290024605210920C0068C
:1011000000F08EF900200322019003460092029025
:10111000024606210920C00600F082F901200021C4
:1011200003220B46009201910290024607210920FA
:10113000C00600F075F90220002103220B46009240
:1011400001910290012211461E4800F069F9002029
:1011500003220190034600920290012205211A48C1
:1011600000F05EF90220002103220B46009201915B
:1011700002900122134800F053F9022000210322BB
:101180000B46009201910290012201460D4800F0A9
:1011900047F90120002103220B46009201910290A1
:1011A00002460B21074800F03BF9022000210322F0
:1011B0000B4600920191029001220A21014800F0A1
:1011C0002FF90EBD00040048000800480014004834
:1011D0000FB4F0B5A3B005460E46002022902BA810
:1011E00021902A98FFF758F8C0B2009000241FE021
:1011F0002A98005D252815D1601C2A99085C64286E
:101200000BD121980188001D8FB22190E1B23A469E
:1012100001A800F02DFF044608E02A98005D01A90E
:10122000085503E02A98005D01A90855601C84B2A6
:1012300000988442DCDBE1B233462A4601A800F084
:1012400003FC002021902298A04205DA002023B060
:10125000F0BC08BC04B018470120F8E70FB4F8B59B
:10126000002507A80090002442E00698005D0A28A7
:101270000BD10D2000F04CF84019C5B20699085D5D
:1012800000F046F84019C5B230E00698005D252808
:1012900026D1601C0699085C64280AD10098018850
:1012A000001D8EB20090304600F02CFE601C84B20F
:1012B0001CE0601C0699085C78280AD10098018817
:1012C000001D8EB20090F0B200F092FF601C84B25C
:1012D0000CE00699085D00F01BF84019C5B205E066
:1012E0000699085D00F014F84019C5B2601C84B27C
:1012F0000698FEF7D1FFA042B7D800200090A54283
:1013000003DAF8BC08BC04B018470120F9E7000074
:10131000024672B60D480188481C81B2802900DB64
:1013200000210B48008881420ED00A48074B1B88D9
:10133000C254064801800848006880231843064BC1
:10134000186062B6012070470020FCE722000020F0
:1013500026000020AC0000200038014070B5054692
:1013600000240A48806A0421084308498862284604
:10137000FFF726FBFFF7D8FA0446044880690421EA
:10138000084302498861204670BD000000040048FF
:1013900070B504460D460A48806A0421084308498E
:1013A0008862802121430846FFF70AFB2846FFF7A1
:1013B00007FB03488069042108430149886170BD27
:1013C000000400487CB506460020710BC0040843A9
:1013D000F1040E4A00230091019008460199FEF79E
:1013E000D9FE04460D462A04200C1043C1B2062043
:1013F000FFF7CEFF2A06200A1043C1B20720FFF7ED
:10140000C7FFE1B20820FFF7C3FF7CBD0048E80139
:1014100030B503684D001446AC402343036030BD33
:10142000FFB504460D461E460B9F29462046029AEC
:10143000FFF7EEFF32462946204600F02AF82946FB
:101440002046099A00F01DF8294620460A9A00F025
:1014500010F8012F05D1A0690121A9400843A0611E
:1014600006E0022F04D1A06A0121A9400843A0622E
:10147000FFBD30B5C3684D001446AC402343C36084
:1014800030BD30B583684D001446AC4023438360C3
:1014900030BD10B5436814468C402343436010BDF3
:1014A00010B500F0C9F8FFF783FD00F0CDF900F0AA
:1014B0000DFA00F09BF8E120400200F087FBFFF7F7
:1014C000C1F9FFF7CDFB324880690121084330495B
:1014D000886130488069202108432E4988612C4862
:1014E0008069042108432A4988612A48806A1021BA
:1014F000084328498862FFF7DDFA254880690421FE
:1015000008432349886124A0FFF7A8FE2220FFF7A3
:10151000F1FA0446214626A0FFF7A0FE0A2000F0BB
:101520006FFC0920C006806A202108430921C906F2
:1015300088620846806A802108430921C9068862BA
:10154000134880690221084311498861084680696F
:10155000012108430E4988610E4880692021084313
:101560000C4988610A488069042108430849886158
:10157000FFF7C8FC7F21002000F0B2FE0721002009
:1015800000F0D8FE0020FFF782FCFFF70FFC10BD33
:1015900000040048000800480A54657374696E67C7
:1015A0002C2048656C6C6F20576F726C64210000B2
:1015B0000A74656D70203D202564000009480068AC
:1015C000002804D007480068401E06490860064805
:1015D0000068002804D004480068401E02490860E2
:1015E00070470000000000200400002010B500BF7C
:1015F0000D490E480068FEF771FE0446601E0C4956
:10160000884201D901200CE0601E0A49486103218B
:10161000081F00F0A9FB0020064988610720086127
:1016200000200028E4D110BDA08601002800002081
:10163000FFFFFF0000E000E010B530480068012126
:1016400008432E49086000BF2C480068022108406A
:101650000228F9D129480068C905084327490860CC
:1016600000BF264800680121490608408842F8D199
:1016700000202249486008464068486008464068A3
:101680000521C90408431D49486008464068486070
:1016900008464068486008464068022108431749E8
:1016A000486000BF15484068082108400828F9D163
:1016B0001248406989030843104948610846406957
:1016C0000121890408430D49486108464069012108
:1016D000C9040843094948610846406901210905D0
:1016E00008430649486108464069012189050843C5
:1016F0000249486100F004F810BD000000100240EB
:10170000F8B50025002400260027264840680C2153
:1017100008400546002D04D0042D06D0082D2FD1F9
:1017200007E02148214908602EE01F481F49086052
:101730002AE01C4840680F218904084004461948E3
:1017400040680321C90308400646A00C841C1548C4
:10175000C06A0007000F471C01200004864207D121
:1017600039461148FEF7BAFD60431049086006E0AB
:1017700039460D48FEF7B2FD60430C49086003E0AE
:1017800009480A49086000BF00BF06484068F021C8
:101790000840000906490D5C04480068E840034918
:1017A0000860F8BD0010024000127A0028000020F6
:1017B000A92B00081948006801210843174908604F
:1017C00008464068164908401449486008460068C1
:1017D000144908401149086008460068012189043D
:1017E00088430E490860084640683F210904884341
:1017F0000A4948600846C06A00090001C8620846F4
:10180000006BFF2114318843044908630846406B8C
:101810004008400048630020886070470010024084
:101820000CB8FF08FFFFF6FE06480069C007C00FAE
:10183000002805D0034800694008400001490861BC
:10184000704700000048014010B50B488069012135
:1018500089040843084988610720084988620120F3
:10186000C862C8600846006840084000086016204A
:1018700000F06AFA10BD000000100240004801406C
:101880000F480069C007C00F002817D00C48006936
:10189000400840000A4908610A480088002804D02E
:1018A00008480088401E074908800748008800282B
:1018B00004D005480088401E034908807047000096
:1018C000000400401A0000201C00002010B50B4846
:1018D000C069022108430949C86109480949886269
:1018E0000120C862C8600846006801210843054914
:1018F0000860102000F028FA10BD0000001002401F
:10190000BF5D00000004004030B5C1B0002400BF3E
:1019100004E0002001A90855601C84B2FF2CF8D90E
:1019200000F0A8FC0546002D36D01C488069FF2138
:10193000013108431949886119A0FFF78FFC1DA2E6
:1019400002210020FFF744FC0A2000F059FA00248D
:1019500013E0FFF76FFA01A9085501A8015D18A06F
:10196000FFF77CFC0A2000F04BFAFF200130844294
:1019700001DD002401E0601C84B2FFF7EDF90028CE
:10198000E7D101AA0421FFF723FC0448806AFF2164
:10199000013108430149886241B030BD000400486C
:1019A0000A5265636569766564205061636B65748E
:1019B000200A0000476F74205061636B65743A0021
:1019C000307825782C20000010B504461448806932
:1019D00020210843124988610420FFF73DFA11A035
:1019E000FFF73CFC0A2000F00BFA13A202210020B2
:1019F000FFF7EEFB00F0F4F92046FFF7B7F900F02F
:101A000015FAFF20F53000F0FBF90220FFF724FA69
:101A10000348806A202108430149886210BD000004
:101A2000000400480A53656E64696E672070616344
:101A30006B65743A2000000053656E64205061634A
:101A40006B65742100000000FFB5FFB086B0002573
:101A500000240420449000204390002742904190AD
:101A60004090002600BF06E0002020A948556946A6
:101A70004855681C85B2802DF6DB002504E0002067
:101A800045A94855681C85B2FF2DF8D9002574E09A
:101A90008598405D2038C0B242904298602801DDB0
:101AA0000020429000240AE04298810044980818DF
:101AB00000194549085C41A90855601C84B2042CF2
:101AC000F2DB40A887790079010240A84079081824
:101AD00080B240903C48C07881004098081880B29D
:101AE00040904098001D80B2409040A8C079811974
:101AF00080228798101A81423ADA002419E040982F
:101B000000193149085C20A98855601CB84207DAE1
:101B100040980019401C2C49085C6946885502E031
:101B2000002069468855601C84B2701CC6B2601CD7
:101B300084B2BC42E3DB40A8C0794000B84210DD6B
:101B4000002408E0002020A9885569468855701CAB
:101B5000C6B2601C84B240A8C0794000C01BA0423D
:101B6000F0DC40A8C17943980818C0B2439000E067
:101B700006E000204090681C85B28698854287DB8D
:101B800000BF0024879D0DE020A8005D45A94855B1
:101B90006846015D2846803045AA1154601C84B215
:101BA000681C85B2802DEFDB7F21002000F098FBC0
:101BB0000721889800F0BEFBFF21013145A800F005
:101BC00007FC7FB00AB0F0BD8C25000810B50446B4
:101BD0002E4840690121490408432C4948610920E5
:101BE000C00600680F21890488430921C9060860DE
:101BF000084600680521C90408430921C906086090
:101C00000846406AFF21090188430921C906486244
:101C10000846406AFF21113108430921C90648627C
:101C20001A48806901218903084318498861002006
:101C300017490860486088601448006B800880007D
:101C4000124908630846006B032108430F490863E3
:101C50000F4800680121C90308430D4908600D4879
:101C6000C860084600680C21084309490860084616
:101C70000068012108430649086000211B2000F08C
:101C800073F81B2000F060F810BD00000010024047
:101C9000003801404103000010B50021234AD269F9
:101CA00020231A40202A1AD1204A20329188204A23
:101CB0001088421C90B24006400E1E4A1288904284
:101CC0000DD01D4B1A4C24881955194A1288521CE4
:101CD000174B1A801A4612785206520E1A80134A6F
:101CE000D26980231A40802A1ED1144A1288144BCC
:101CF0001B889A4212D0134A104B1B88D25C0B4BA4
:101D000020331A810D4A1288521C0C4B1A801A4635
:101D10001288802A08DB00221A8005E0034A126834
:101D200080239A43014B1A6010BD00000038014027
:101D300020000020240000202C000020260000208D
:101D400022000020AC000020002809DB00BF00BFFB
:101D5000C206D20E01219140024A116000BF00BFAD
:101D60007047000000E100E010B5002819DB1A4AB6
:101D700003231B02D21883089B00D2588307DC0E72
:101D8000FF23A3409A438B071B0E8407E40EA34056
:101D90001A43114B032424021B198408A4001A516E
:101DA00018E00E4A03071B0F083B9B089B00D25804
:101DB0008307DC0EFF23A3409A438B071B0E840787
:101DC000E40EA3401A43054B0407240F083CA40863
:101DD000A4001A5110BD000000E100E01CED00E07D
:101DE00010B500F089F800F033F800210D20FFF75E
:101DF000CFFA00212220FFF7CBFA012010BD00000E
:101E000064214143034A116000BF02490968002967
:101E1000FBD17047040000200349086000BF02495D
:101E200009680029FBD170470000002010B583210C
:101E30000120FFF7ADFA00BF1220FFF78FFA08214B
:101E400008400028F8D01220FFF7A2FA012010BDA8
:101E500010B51D20FFF782FAFE21084004462146F6
:101E60001D20FFF795FA10BDFEB5002001900090EF
:101E70001948008800282ED11020FEF77FFE01901F
:101E80000198FEF742FB0646144A154BFEF740FB4D
:101E90000446FEF7D3FA009021214906009800F08D
:101EA0000DFB00900098FEF757FC04460D4A0E4BC0
:101EB000FEF72EFB0646FEF7C1FA00900098FEF7EB
:101EC00075FC84B2234609A206210020FFF780F9A1
:101ED000642001490880FEBD1A000020BA490C02A6
:101EE0002B87B63F9E5E29CB10C7E13F54656D70CE
:101EF000203D20256443000010B581210120FFF71B
:101F000047FA10BDF1B584B0002456490498FEF795
:101F1000E5F9C0B2039053490498FEF7DFF9049144
:101F200003983030C0B203900398302803D12420A6
:101F30000390012400E000244B490498FEF7CEF9F9
:101F4000C0B2029048490498FEF7C8F9049102987B
:101F50003030C0B202900298302805D1002C03D056
:101F600024200290012400E0002440490498FEF758
:101F7000B5F9C5B23D490498FEF7B0F90491284679
:101F80003030C5B2302D04D1002C02D024250124DC
:101F900000E000247D21C9000498FEF79FF9C6B235
:101FA0007D21C9000498FEF799F90491304630303C
:101FB000C6B2302E04D1002C02D02426012400E029
:101FC000002464210498FEF789F9C7B264210498BB
:101FD000FEF784F9049138463030C7B2302F04D16F
:101FE000002C02D02427012400E000240A210498B8
:101FF000FEF774F9C0B201900A210498FEF76EF959
:10200000049101983030C0B201900198302804D179
:10201000002C02D02420019001240498C0B200902A
:1020200000983030C0B20090242D02D02846FFF72F
:102030006FF9242E02D03046FFF76AF9242F02D020
:102040003846FFF765F90198242802D00198FFF778
:102050005FF90098242802D00098FFF759F905B0DD
:10206000F0BD000040420F00A086010010270000D4
:10207000F7B586B005460026079C5A490898FEF732
:102080002DF9C0B2059057490898FEF727F9089135
:1020900005983030C0B205900598302803D124202F
:1020A0000590012600E000264F490898FEF716F932
:1020B000C0B204904C490898FEF710F908910498B2
:1020C0003030C0B204900498302805D1002E03D0DF
:1020D00024200490012600E0002644490898FEF7D9
:1020E000FDF8C7B241490898FEF7F8F8089138465C
:1020F0003030C7B2302F04D1002E02D02427012661
:1021000000E000267D21C9000898FEF7E7F8C0B27C
:1021100003907D21C9000898FEF7E0F80891039824
:102120003030C0B203900398302805D1002E03D080
:1021300024200390012600E0002664210898FEF781
:10214000CDF8C0B2029064210898FEF7C7F8089154
:1021500002983030C0B202900298302805D1002E8B
:1021600003D024200290012600E000260A210898CE
:10217000FEF7B4F8C0B201900A210898FEF7AEF855
:10218000089101983030C0B201900198302804D1F4
:10219000002E02D02420019001260898C0B20090A1
:1021A00000983030C0B20090242F00D02F550398F3
:1021B000242801D0039828550298242803D0029897
:1021C0002855601CC4B20198242803D001982855D2
:1021D000601CC4B20098242801D0009828552046DD
:1021E00009B0F0BD40420F00A0860100102700009A
:1021F00070B50646F020304004462411092C06DD57
:1022000020460A38C4B220464130C4B202E020461B
:102210003030C4B235072D0F092D06DD28460A38A7
:10222000C5B228464130C5B202E028463030C5B2BA
:102230002046FFF76DF82846FFF76AF870BD0000EA
:10224000FFF72EF90FE00920C0060069C007C00F94
:10225000002802D104A0FFF7B7FBFFF705FEFEF749
:10226000A9FCFFF751FBEEE748656C6C6F20576FD8
:10227000726C640070B500251220FFF76FF80446F9
:10228000FFF7E6FD21461220FFF782F840202040AC
:10229000002814D020202040002810D10F490880A9
:1022A0001320FFF75BF805461020FFF757F80646A6
:1022B00031460D20FFF76CF8FFF71EFE0CE0012001
:1022C000FFF74CF8862807D000210D20FFF760F8B3
:1022D00086210120FFF75CF8284670BD1E00002013
:1022E00070B505460C46212000F048F8284600F05D
:1022F00045F8204600F042F870BD70B504461B2535
:10230000782C06DC20462D380521FDF7F1FFC5B2FB
:1023100007E0F02C05DC0A2120461E30FDF7E8FF1F
:10232000C5B2E806C00E2022104301460B20FFF77D
:102330002FF870BD70B505460C46222000F01EF83F
:10234000284600F01BF8204600F018F870BD10B5C4
:10235000044684214D20FFF71BF86420FFF7CDFFD2
:10236000A01E80221043C1B20920FFF711F810BD52
:1023700010B580210120FFF70BF810BD70B50546A0
:1023800000241148806A022108430F4988620F48DF
:10239000806A202108430D49886200BF01E0601C6B
:1023A000C4B2642CFBDB2846FEF70AFB002401E0E4
:1023B000601CC4B2642CFBDB034880690221084323
:1023C0000149886170BD0000000400480008004811
:1023D000F8B506460F461448806A022108431249A0
:1023E00088621248806920210843104988610024CE
:1023F00001E0601C84B2642CFBDB002504E0705D0E
:10240000FEF7DEFA681C85B2BD42F8DB002401E06D
:10241000601C84B2642CFBDB034880690221084302
:1024200001498861F8BD0000000400480008004828
:1024300070B501250400ED074C4020D4441A01D2A8
:10244000001B0919C60D4B00F2B2FF2A29D01B0E42
:102450002CD000020C02D31A2C43DC40284305196F
:1024600010D2280A02D3401C6D0611D0761EF60544
:102470008019FF2A00DA70BDC00DC00570BD69402B
:1024800000F022F801200543C541521C761CE8E704
:1024900064089C40C90161408900E7D10124A04340
:1024A000E4E71B0E440200D0034870BD002AFCD1B3
:1024B000C00FC00770BD00BF0000C07F70B5012510
:1024C0000400ED074C4022D4441A02D26C40001B99
:1024D0000919C60D4B00F2B2FF2A4BD01B0E50D08B
:1024E00000020C02D31A2C43DC40A843051B05D57F
:1024F000AD0019D36D08761E521E37D0F605280A96
:1025000001D2801970BD70416D0603D070BD694065
:10251000FFF794FF9C4009026140490001D0401E32
:1025200070BD0124A04370BD6D081DD001202B0C8F
:1025300001D12D0410302B0E01D12D0208302B0FAC
:1025400001D12D01001DAB0F01D1AD00801CEB0F9F
:1025500001D16D00401C6D00361A121A680AF5058B
:102560004019012A02DB70BD002070BDC036300A60
:10257000C00770BD1B0E440201D1FF2B00D10248E1
:1025800070BD002AF0D070BD0000C07F0B0F20602E
:10259000FFFF00040000060500060705000D110AF4
:1025A000001E0E08002C140B0040120A00520303F8
:1025B00000550805005D080500650B060070100A4F
:1025C0000080040400840804008C040400900704C4
:1025D00000970E0800A50C0800B10E0800BF0E08F9
:1025E00000CD0E0800DB0E0800E90E0800F70D080C
:1025F00001040E0801120E08012004040124040441
:102600000128120A013A120A014C120A015E090657
:102610000167180D017F1008018F0E08019D0E083B
:1026200001AB100901BB0E0801C90B0701D4100949
:1026300001E4100901F4040301F8040301FC0E078E
:10264000020A0C060216120A0228100902381009A2
:1026500002480D08025510090265100802750E089F
:1026600002830D070290100902A00F0802AF150B9C
:1026700002C40E0702D20D0702DF100902EF08059F
:1026800002F7080402FF060503050F0A03140C06EF
:102690000320070603270E0803350E0803430C0723
:1026A000034F0E08035D0E08036B070403720E0848
:1026B00003800E08038E04030392040303960C07A1
:1026C00003A2040303A6140B03BA0E0803C80E08E2
:1026D00003D60E0803E40E0803F2090503FB0C07FA
:1026E00004070805040F0E08041D0B060428110931
:1026F00004390C0604450B0604500A05045A0E085A
:1027000004680604046E0C08047A110A048B0E0790
:1027100000000000F80D0000380000003800000044
:1027200002400AC0077002400EE003500240000061
:102730000000E0049008F83F1009200770008800AE
:10274000880870068001C0003007880880080007EC
:1027500000000007F00C4808880810090006000A6D
:1027600080090000380000E0031C1C041000000475
:10277000101C1CE003000090006000F80160009055
:102780000000000100010001E00F00010001000154
:102790000000001C00000001000100010000000C0E
:1027A00000180007E000180000E003180C080808F3
:1027B00008180CE003000008080808F80F000800DB
:1027C0000800001008080C080A080998087008009A
:1027D00000100408088808880888087007000000AE
:1027E00003C00220021802F80F000200007804481B
:1027F0000848084808C80C80070000E003900C480F
:10280000084808C80C900700000800080808068857
:102810000168001800007007880888088808880880
:1028200070070000F0049809080908099804E003FB
:102830000000C00C0000C01C00008001800180016D
:102840004002400240026006200400008002800234
:102850008002800280028002800280020000200448
:1028600060064002400240028001800180011000A9
:102870000800880D4800300000C0072008101088AC
:1028800023482448244824C82710143002C00100DB
:10289000080007E00218021802E002000700080022
:1028A00000F80F880888088808880870070000E08A
:1028B00003100408080808080810040000F80F08AE
:1028C000080808080808081004E0030000F80F884A
:1028D0000888088808880888080000F80F88008899
:1028E000008800880000E003100408080808880831
:1028F000880890070000F80F8000800080008000AA
:102900008000F80F0000F80F0020F81F0000F80FFB
:10291000800040012002100408080000F80F0008A1
:102920000008000800080000F80F3000C000000395
:102930000003C0003000F80F0000F80F180060001E
:1029400080000003000CF80F0000E00310040808EA
:10295000080808081004E0030000F80F8800880049
:1029600088008800700000E00310040808080808C8
:10297000181024E0030000F80F8800880088008801
:10298000017006000800007004880888088808881C
:10299000081007080008000800F80F0800080008E1
:1029A0000000F807000C000800080008000CF807F9
:1029B0001800E0000003000C000C0003E000180801
:1029C0000070008003000CC0033800C003000C80BE
:1029D00003700008080818046003800060031804EE
:1029E000080808003000C000000FC00030000800D8
:1029F00000080C080A080988084808280818080070
:102A0000000000F83F08201800E000000700180050
:102A1000000820F83F000000002000100008000817
:102A200000100020004000400040004000400040F6
:102A300000000000040008000040062009200920D2
:102A4000092005C00F0000FC0F600C200820086062
:102A50000CC0070000C007600C20082008400400DC
:102A600000C007600C20082008600CFC0F0000C0AC
:102A700007600D200920096009C0052000F80F2417
:102A800000240000C007602C20482048606CE03F14
:102A90000000FC0F4000200020002000C00F0000BC
:102AA000E80F0040E87F0000FC0F000180024004B6
:102AB00020080000FC0F0000E00F20002000200094
:102AC000C00F200020002000C00F0000E00F4000D9
:102AD000200020002000C00F0000C007600C20086C
:102AE0002008600CC0070000E07F600C2008200870
:102AF000600CC0070000C007600C20082008600CB4
:102B0000E07F0000E00F40002000200000C0042013
:102B1000092009200940062000F80F20082008009D
:102B200000E0070008000800080004E00F600080D3
:102B300003000C000C80036060008003000C800325
:102B400060008003000C8003602008C006000100C4
:102B500001C0062008604080410026001C80036000
:102B6000200C200A2009A0086008000000000001D5
:102B70000001F83E0820082000000000F87F000057
:102B800008200820F83E000100010000000180003C
:102B900080008000000100010001800000F07F1033
:102BA00040104010401040F07F0000000000000086
:102BB00000010203040607080900000000010203E7
:102BC00004000000E42B0008000000202C0000009E
:102BD000FC000008102C00082C00002064070000F6
:102BE00018010008000000000000000000000000C4
:102BF00000000000000000000000000000000000D5
:102C000000000000000000000000000000127A0038
:040000050800015D91
:00000001FF
