:020000040800F2
:10000000780700205D01000865010008670100080D
:1000100000000000000000000000000000000000E0
:10002000000000000000000000000000690100085E
:1000300000000000000000006B010008510E0008E5
:100040006F010008000000006F0100086F01000848
:100050006F0100086F0100086F0100086F010008C0
:10006000000000006F0100086F0100086F01000828
:100070006F0100086F0100086F0100080000000018
:10008000391100086F0100086F010008BD10000859
:100090006F0100086F010008E11000086F010008FF
:1000A0006F0100086F0100086F010008A11400082B
:1000B0006F0100086F01000800F002F800F03EF840
:1000C0000CA030C8083824182D18A246671EAB466D
:1000D00054465D46AC4201D100F030F87E460F3EFA
:1000E0000FCCB6460126334200D0FB1AA246AB46DF
:1000F00033431847802A0000A02A0000103A02D398
:1001000078C878C1FAD8520701D330C830C101D5B8
:1001100004680C60704700000023002400250026BE
:10012000103A01D378C1FBD8520700D330C100D5B3
:100130000B6070471FB51FBD10B510BD00F07EF9F4
:100140001146FFF7F7FF01F095FC00F096F903B4B4
:10015000FFF7F2FF03BC00F09DF90000074880475D
:1001600007480047FEE7FEE7FEE7FEE7FEE7FEE79B
:1001700004480549054A064B70470000491000082D
:10018000B9000008780100207807002078030020DB
:1001900078030020FEB5054610460C46184373D080
:1001A000AE468C460020AD1A01469C4167D3664698
:1001B000002701243D46B61A9D4102D313463A4614
:1001C0002124654676462F04360C3E432D0CB61A84
:1001D0009D4104D3150C1B042B43120410346546B7
:1001E00076462F06360A3E432D0AB61A9D4104D3A1
:1001F000150E1B022B4312020834654676462F0764
:1002000036093E432D09B61A9D4104D3150F1B0133
:100210002B431201241D65467646AF07B6083E43C0
:10022000AD08B61A9D4104D3950F9B002B43920055
:10023000A41C65467646EF0776083E436D08B61A5D
:100240009D411AD392185B41641C16E00018764653
:1002500065464941B71A9D410191009009D3604616
:10026000B11A98418E468446009801990025401C99
:100270006941DD0752082A435B08641EE6D57246D1
:10028000634603B0F0BDFFE700200146C046C0460C
:100290002A462346F5E7000030B5441C03E0017808
:1002A000401C00290DD08107F9D10B4BDD0104C89A
:1002B000D11A91432940FAD0001B0A0603D0C01E70
:1002C00030BD001B30BD0A0401D0801E30BD0902C4
:1002D000FCD0401E30BD00000101010100220309D5
:1002E0008B422CD3030A8B4211D300239C464EE051
:1002F00003460B433CD4002243088B4231D303090D
:100300008B421CD3030A8B4201D394463FE0C309BE
:100310008B4201D3CB01C01A524183098B4201D3D6
:100320008B01C01A524143098B4201D34B01C01AC1
:10033000524103098B4201D30B01C01A5241C30839
:100340008B4201D3CB00C01A524183088B4201D3A8
:100350008B00C01A524143088B4201D34B00C01A94
:100360005241411A00D201465241104670475DE0A9
:10037000CA0F00D04942031000D34042534000222C
:100380009C4603098B422DD3030A8B4212D3FC22D5
:10039000890112BA030A8B420CD3890192118B4254
:1003A00008D3890192118B4204D389013AD092116A
:1003B00000E08909C3098B4201D3CB01C01A524125
:1003C00083098B4201D38B01C01A524143098B42EE
:1003D00001D34B01C01A524103098B4201D30B01D7
:1003E000C01A5241C3088B4201D3CB00C01A5241FC
:1003F00083088B4201D38B00C01A5241D9D24308E3
:100400008B4201D34B00C01A5241411A00D201461F
:10041000634652415B10104601D34042002B00D589
:100420004942704763465B1000D3404201B500204B
:10043000C046C04602BD704770477047754600F021
:1004400025F8AE46050069465346C008C0008546FB
:1004500018B020B5FFF78CFE60BC00274908B646EF
:100460000026C0C5C0C5C0C5C0C5C0C5C0C5C0C5C3
:10047000C0C5403D49008D46704710B50446C04692
:10048000C0462046FFF763FE10BD000000487047DD
:100490001801002001491820ABBEFEE7260002002B
:1004A000704770B50022002107230020002400BF00
:1004B0002BE00925ED06AD69202635430926F60611
:1004C000B56135462D6940263540002D05D0012502
:1004D0009D40ECB2054625432846002101E04D1C15
:1004E000E9B21429FBDB0925ED06AD6A2026354368
:1004F0000926F606B562002101E04D1CE9B2142977
:10050000FBDB5D1EEBB2551CEAB2082AD1DB0925E4
:10051000ED06AD6A202635430926F606B562354656
:10052000AD6A802635430926F606B562002101E052
:100530004D1CE9B23229FBDB70BD30B5034600210A
:100540000020072200BF36E01C461441E407E40FF8
:10055000002C08D00924E406A46980252C43092531
:10056000ED06AC6107E00924E406A46A80252C436B
:100570000925ED06AC620924E406A46920252C4374
:100580000925ED06AC61002001E0441CA0B2022860
:10059000FBDB0924E406A46A20252C430925ED068B
:1005A000AC62002001E0441CA0B20228FBDB541E18
:1005B000A2B24C1CE1B20829C6DB0924E406A46AF5
:1005C00020252C430925ED06AC622C46A46A802523
:1005D0002C430925ED06AC62002001E0441CA0B2CA
:1005E0000528FBDB30BD000010B50E48806A1021E5
:1005F00008430C498862084680691021084309496C
:1006000088610220FFF799FF6020FFF796FF0548F9
:10061000806A10210843034988620A2001F032F8F9
:1006200010BD000000080048F8B50446002500266B
:1006300000271048806A102108430E498862084646
:100640008069102108430B4988610320FFF775FF7B
:100650002046FFF772FF012001F014F8FFF721FF99
:1006600005460448806A10210843024988622846EA
:10067000F8BD00000008004810B5132000F036FB5C
:1006800001490988401A10BD08000020F8B5074646
:100690003846FFF701FEC4B2214616A000F0A6FAC4
:1006A0000A2000F0EFFF222000F020FB054629463B
:1006B00015A000F09BFA0A2000F0E4FF2819FF289B
:1006C00002DDFF20401BC4B2002604E0B95D00201B
:1006D00000F026FB761CA642F8D3291910A000F0E2
:1006E00085FA0A2000F0CEFF2819C1B2222000F0BE
:1006F00017FBF8BD0A537472696E672073697A65D7
:10070000203D2025640000000A43757272656E74F6
:10071000206C656E677468203D2025640000000031
:100720000A4E6577206C656E677468203D202564ED
:100730000000000038B52548806A0121890208437D
:1007400022498862002000E0401C7D21C9008842C7
:10075000FADB1E4880690121890208431B49886130
:10076000422000F0C3FA0446122C01D0002038BD0C
:1007700001F0ACFA164800F0EDFA00210E2000F06E
:10078000CFFA00210F2000F0CBFA0C2000F0AEFAD7
:1007900003210843054629460C2000F0C1FA042134
:1007A000262000F0BDFA112001F07FFA00F0BEFF14
:1007B000262000F09BFA054606A300221146009071
:1007C000104600F0BDF90120D1E700000004004808
:1007D0008050DE1954454D503A2025640000000039
:1007E00010B5FFF749FF002801D1401E10BD044895
:1007F0000088401C02490880002000F077FAF5E7E5
:100800000800002010B50446204601F065FA10BD2E
:1008100070B50446002500BF0AE0002C03D100207B
:1008200001F084FA02E0FF2001F080FA681C85B232
:10083000012080028542F0DB70BD000010B50C483D
:100840008069012108430A498861012000F023FFE3
:100850000748806A01210843054988620A2000F0A0
:100860001AFF03488069012108430149886110BDCE
:100870000004004810B5FFF7E1FFAE20FFF7C2FF0C
:100880000020FFF7BFFF1020FFF7BCFF4020FFF75D
:10089000B9FFB020FFF7B6FF8120FFF7B3FFFF20BD
:1008A000FFF7B0FFA120FFF7ADFFA620FFF7AAFFDB
:1008B000C920FFF7A7FFA820FFF7A4FF3F20FFF7FD
:1008C000A1FFD320FFF79EFF0020FFF79BFFD5205D
:1008D000FFF798FF8020FFF795FFD920FFF792FFE1
:1008E000F120FFF78FFF2020FFF78CFF0020FFF79C
:1008F00089FFDA20FFF786FF1220FFF783FFDB2056
:10090000FFF780FF4020FFF77DFF8D20FFF77AFF84
:100910001420FFF777FFAF20FFF774FF10BD000032
:100920000EB50220002103220B4600920191029095
:10093000012205217F4800F03BFA0220002103221A
:100940000B4600920191029001220621794800F0A5
:100950002FFA0220002103220B46009201910290FF
:1009600001220721734800F023FA0220002103220C
:100970000B46009201910290012208216D4800F07F
:1009800017FA0020032201900346009202900246CB
:1009900001460920C00600F00BFA00200322019056
:1009A000034600920290024601210920C00600F091
:1009B000FFF90020032201900346009202900246B4
:1009C00002210920C00600F0F3F900200322019063
:1009D000034600920290024603210920C00600F05F
:1009E000E7F90020012103220346009201910290C1
:1009F00002460D21504800F0DBF9002001210322BE
:100A0000034600920191029002460E214A4800F0EE
:100A1000CFF90020012103220346009201910290A8
:100A200002460F21444800F0C3F9002001210322AF
:100A30000346009201910290024601463F4800F0B1
:100A4000B7F90120002103220B4600920191029088
:100A500002460421384800F0ABF9012000210322AE
:100A60000B46009201910290024605210920C00622
:100A700000F09EF9002003220190034600920290AC
:100A8000024606210920C00600F092F9012000214B
:100A900003220B4600920191029002460721092091
:100AA000C00600F085F90220002103220B460092C7
:100AB00001910290012211461E4800F079F90020B0
:100AC00003220190034600920290012205211A4858
:100AD00000F06EF90220002103220B4600920191E2
:100AE00002900122134800F063F902200021032242
:100AF0000B46009201910290012201460D4800F040
:100B000057F90120002103220B4600920191029027
:100B100002460B21074800F04BF902200021032276
:100B20000B4600920191029001220A21014800F037
:100B30003FF90EBD000400480008004800140048BA
:100B40000FB4F0B5A7B006460F46002025900397D6
:100B50002E98029030A824902F98FFF79DFBC5B2E5
:100B6000002420E02F98005D252816D1601C2F99C5
:100B7000085C64280CD124980188001D249088B258
:100B80002690E1B204A8269A00F08CFE044608E004
:100B90002F98005D04A9085503E02F98005D04A973
:100BA0000855601C84B2AC42DCDB002508E004A8D8
:100BB000405D642802D1202004A94855681CC5B2B4
:100BC000802DF4D3E1B2009604A8029B039A00F0B2
:100BD0003DFB002024902598A04205DA002027B094
:100BE000F0BC08BC04B018470120F8E70FB4F8B512
:100BF000002507A80090002442E00698005D0A281E
:100C00000BD10D2000F04CF84019C5B20699085DD3
:100C100000F046F84019C5B230E00698005D25287E
:100C200026D1601C0699085C64280AD100980188C6
:100C3000001D8EB20090304600F07EFD601C84B234
:100C40001CE0601C0699085C78280AD1009801888D
:100C5000001D8EB20090F0B200F0E4FE601C84B281
:100C60000CE00699085D00F01BF84019C5B205E0DC
:100C70000699085D00F014F84019C5B2601C84B2F2
:100C80000698FFF709FBA042B7D800200090A542C4
:100C900003DAF8BC08BC04B018470120F9E70000EB
:100CA00002460E480188481C81B2802900DB0021E1
:100CB0000B48008881420ED00A48084B1B88C2545A
:100CC000064801800848006880231843064B1860D6
:100CD00062B6012070470020FCE700000C000020F5
:100CE00010000020980000200038014070B5054633
:100CF00000240A48806A042108430849886228467B
:100D0000FFF71BFCFFF7CDFB044604488069042174
:100D1000084302498861204670BD00000004004875
:100D200070B504460D460A48806A04210843084904
:100D30008862802121430846FFF7FFFB2846FFF722
:100D4000FCFB03488069042108430149886170BDA8
:100D5000000400487CB506460020710BC00408431F
:100D6000F1040E4A00230091019008460199FFF713
:100D700011FA04460D462A04200C1043C1B2062085
:100D8000FFF7CEFF2A06200A1043C1B20720FFF763
:100D9000C7FFE1B20820FFF7C3FF7CBD0048E801B0
:100DA00030B503684D001446AC402343036030BDAA
:100DB000FFB504460D461E460B9F29462046029A63
:100DC000FFF7EEFF32462946204600F02AF8294672
:100DD0002046099A00F01DF8294620460A9A00F09C
:100DE00010F8012F05D1A0690121A9400843A06195
:100DF00006E0022F04D1A06A0121A9400843A062A5
:100E0000FFBD30B5C3684D001446AC402343C360FA
:100E100030BD30B583684D001446AC402343836039
:100E200030BD10B5436814468C402343436010BD69
:100E300010B500F04BF8FFF773FD00F061F900F01A
:100E40008BF900F01DF8E120400200F0C3FA10BD5C
:100E500009480068002804D007480068401E064979
:100E6000086006480068002804D004480068401E56
:100E700002490860704700000000002004000020C4
:100E800010B500BF0D490E480068FFF727FA044669
:100E9000601E0C49884201D901200CE0601E0A49FD
:100EA00048610321081F00F065FB002006498861A6
:100EB0000720086100200028E4D110BDA0860100B1
:100EC00014000020FFFFFF0000E000E010B53048F4
:100ED0000068012108432E49086000BF2C480068C3
:100EE000022108400228F9D129480068C9050843B1
:100EF0002749086000BF26480068012149060840CC
:100F00008842F8D10020224948600846406848607D
:100F1000084640680521C90408431D494860084641
:100F200040684860084640684860084640680221BA
:100F300008431749486000BF154840680821084029
:100F40000828F9D1124840698903084310494861CB
:100F5000084640690121890408430D494861084653
:100F600040690121C90408430949486108464069AC
:100F700001210905084306494861084640690121E5
:100F8000890508430249486100F004F810BD0000DB
:100F900000100240F8B5002500240026002726484E
:100FA00040680C2108400546002D04D0042D06D0D1
:100FB000082D2FD107E02148214908602EE01F4865
:100FC0001F4908602AE01C4840680F218904084036
:100FD0000446194840680321C90308400646A00C8E
:100FE000841C1548C06A0007000F471C012000043C
:100FF000864207D139461148FFF770F9604310491E
:10100000086006E039460D48FFF768F960430C496F
:10101000086003E009480A49086000BF00BF0648AD
:101020004068F0210840000906490D5C044800684A
:10103000E84003490860F8BD0010024000127A0041
:10104000140000205C2B00081948006801210843A7
:101050001749086008464068164908401449486026
:1010600008460068144908401149086008460068AD
:101070000121890488430E490860084640683F21E1
:10108000090488430A4948600846C06A000900010B
:10109000C8620846006BFF21143188430449086385
:1010A0000846406B40084000486300208860704755
:1010B000001002400CB8FF08FFFFF6FE064800696A
:1010C00002210840002805D0034800690349084070
:1010D000014908617047000000200040FDFDFFFF4E
:1010E00006480069C007C00F002805D00348006902
:1010F0004008400001490861704700000048014075
:1011000010B50B48806901218904084308498861AA
:101110000720084988620120C862C8600846006844
:10112000400840000860162000F014FA10BD0000CE
:10113000001002400048014006480069C007C00F87
:10114000002805D0034800694008400001490861B3
:10115000704700000004004010B50B48C069022130
:1011600008430949C8610948094988620120C862E1
:10117000C86008460068012108430549086010203E
:1011800000F0E8F910BD000000100240BF5D000053
:101190000004004070B500F00DFD0446002C17D08F
:1011A0000C484069FF21013148400A4948610AA0C2
:1011B000FFF71CFD0A2000F065FA05E0FFF710FBC1
:1011C000C5B22846FFF76CFDFFF756FA0028F5D1A7
:1011D00070BD0000000400480A52656365697665C9
:1011E00064207061636B6574200A000010B50BA069
:1011F000FFF7FCFC0A2000F045FA0DA3002211467F
:101200001046FFF79DFC00F0F1F90CA0FFF73EFA45
:101210000CA0FFF73BFA00F047FA10BD0A53656EC9
:1012200064696E67207061636B65743A200000002A
:1012300053656E646420506B7421000068656C6CAB
:101240006F200000776F726C64000000FFB5FFB084
:10125000FFB091B0174600240026242500BFAEE061
:10126000FFA8006C815DFFA8C163C06B622805D137
:10127000FFA8C06B401EC1B2FFA8C163FFA8C06B2E
:101280002038C1B2FFA8C163002409E0FFA8C06BE9
:10129000684300194E49085C02A90855601C84B2D5
:1012A000AC42F3DB002407E0601E02A9085CFFA942
:1012B0002C310855601C84B2681E0321FFF718F812
:1012C000C01CA042F0DC002408E020460B3002A93C
:1012D000085CFFA91C310855601C84B2681E0321FC
:1012E000FFF706F8C01CA042EFDC002415E0FFA8C1
:1012F000406E012808D12046173002A9085C8030D2
:10130000FFA90C31085506E02046173002A9085CF9
:10131000FFA90C310855601C84B2681E0321FEF73A
:10132000E7FFC01CA042E2DC0C217143C919C8B21E
:101330007F2100F083FC0721FFA8C06C00F0A8FC0F
:1013400003212846FEF7D4FF401CC1B2FFA82C3071
:10135000019100F013FD0C217143C919C8B27F211E
:1013600000F06CFCFFA9C96C491CC8B2072100F051
:101370008FFC03212846FEF7BBFF401CC1B2FFA82B
:101380001C30019100F0FAFC0C217143C919C8B25C
:101390007F2100F053FCFFA9C96C891CC8B207214A
:1013A00000F076FC03212846FEF7A2FF401CC1B2E4
:1013B000FFA80C30019100F0E1FC701C86B2FFA880
:1013C000406C864200DA4BE77FB07FB015B0F0BDCD
:1013D000DC1D000810B504462E484069012149046F
:1013E00008432C4948610920C00600680F21890480
:1013F00088430921C9060860084600680521C90418
:1014000008430921C90608600846406AFF2109010E
:1014100088430921C90648620846406AFF21113104
:1014200008430921C90648621A48806901218903D5
:10143000084318498861002017490860486088609F
:101440001448006B80088000124908630846006B4E
:10145000032108430F4908630F4800680121C903AD
:1014600008430D4908600D48C860084600680C2113
:1014700008430949086008460068012108430649F5
:10148000086000211B2000F075F81B2000F062F8B6
:1014900010BD000000100240003801404103000070
:1014A00010B50021244AD26920231A40202A1CD1D9
:1014B000214A20329188214A1088421C90B280280B
:1014C00000DB00201E4A128890420ED01D4B1B4CA0
:1014D00024881955194A1288521C184B1A801A462A
:1014E0001288802A01DB00221A80134AD2698023E5
:1014F0001A40802A1ED1144A1288144B1B889A4223
:1015000012D0134A104B1B88D25C0B4B20331A812C
:101510000D4A1288521C0C4B1A801A461288802AD7
:1015200008DB00221A8005E0034A126880239A43F0
:10153000014B1A6010BD0000003801400A00002075
:101540000E00002018000020100000200C000020D9
:1015500098000020002809DB00BF00BFC206D20EA1
:1015600001219140024A116000BF00BF7047000096
:1015700000E100E010B5002819DB1A4A03231B0222
:10158000D21883089B00D2588307DC0EFF23A340A8
:101590009A438B071B0E8407E40EA3401A43114B9A
:1015A000032424021B198408A4001A5118E00E4ACF
:1015B00003071B0F083B9B089B00D2588307DC0ED8
:1015C000FF23A3409A438B071B0E8407E40EA3401E
:1015D0001A43054B0407240F083CA408A4001A5121
:1015E00010BD000000E100E01CED00E010B510A00F
:1015F000FFF7FCFA0A2000F045F800F097F811A078
:10160000FFF7F4FA0A2000F03DF800F083F813A089
:10161000FFF7ECFA0A2000F035F800210D20FFF763
:101620007FFB00212220FFF77BFB012010BD000083
:101630000A50757420696E2069646C65206D6F6452
:10164000650000000A4578706C69636974206865FC
:1016500061646572206D6F64650000000A526573F5
:101660006574204649464F277300000064214143BA
:10167000034A116000BF024909680029FBD1704785
:1016800004000020002100E0491C7D22D2004243DA
:101690008A42F9D87047002100E0491C42008218B4
:1016A0008A42FAD87047000010B511A0FFF79EFAE1
:1016B0000A20FFF7E7FF83210120FFF731FB00BF7E
:1016C0001220FFF713FB082108400028F8D00BA0D8
:1016D000FFF78CFA0A20FFF7D5FF0BA0FFF786FA79
:1016E0000A20FFF7CFFF08211220FFF719FB10BDDA
:1016F0000A5458204D6F6465000000000A545820B9
:10170000646F6E65000000000A436C6561722049D9
:1017100052510A0010B51D20FFF7E8FAFE210840DB
:10172000044621461D20FFF7FBFA10BD10B58121AC
:101730000120FFF7F5FA10BDF1B584B00024564939
:101740000498FEF7CBFDC0B2039053490498FEF70E
:10175000C5FD049103983030C0B20390039830283F
:1017600003D124200390012400E000244B49049875
:10177000FEF7B4FDC0B2029048490498FEF7AEFDF2
:10178000049102983030C0B202900298302805D1FE
:10179000002C03D024200290012400E000244049C2
:1017A0000498FEF79BFDC5B23D490498FEF796FDEF
:1017B000049128463030C5B2302D04D1002C02D01F
:1017C0002425012400E000247D21C9000498FEF7AF
:1017D00085FDC6B27D21C9000498FEF77FFD049106
:1017E00030463030C6B2302E04D1002C02D0242630
:1017F000012400E0002464210498FEF76FFDC7B2C5
:1018000064210498FEF76AFD049138463030C7B26F
:10181000302F04D1002C02D02427012400E0002422
:101820000A210498FEF75AFDC0B201900A210498DB
:10183000FEF754FD049101983030C0B20190019838
:10184000302804D1002C02D02420019001240498D7
:10185000C0B2009000983030C0B20090242D02D069
:101860002846FFF71DFA242E02D03046FFF718FA5B
:10187000242F02D03846FFF713FA0198242802D00B
:101880000198FFF70DFA0098242802D00098FFF77E
:1018900007FA05B0F0BD000040420F00A08601002D
:1018A00010270000F7B586B005460026079C5A4968
:1018B0000898FEF713FDC0B2059057490898FEF747
:1018C0000DFD089105983030C0B20590059830287C
:1018D00003D124200590012600E000264F490898F6
:1018E000FEF7FCFCC0B204904C490898FEF7F6FCE9
:1018F000089104983030C0B204900498302805D183
:10190000002E03D024200490012600E00026444944
:101910000898FEF7E3FCC7B241490898FEF7DEFCE1
:10192000089138463030C7B2302F04D1002E02D093
:101930002427012600E000267D21C9000898FEF733
:10194000CDFCC0B203907D21C9000898FEF7C6FC0B
:10195000089103983030C0B203900398302805D125
:10196000002E03D024200390012600E000266421ED
:101970000898FEF7B3FCC0B2029064210898FEF705
:10198000ADFC089102983030C0B202900298302825
:1019900005D1002E03D024200290012600E000266D
:1019A0000A210898FEF79AFCC0B201900A21089813
:1019B000FEF794FC089101983030C0B20190019874
:1019C000302804D1002E02D024200190012608984E
:1019D000C0B2009000983030C0B20090242F00D0E8
:1019E0002F550398242801D00398285502982428BD
:1019F00003D002982855601CC4B20198242803D053
:101A000001982855601CC4B20098242801D0009881
:101A10002855204609B0F0BD40420F00A0860100C5
:101A20001027000070B50646F0203040044624110F
:101A3000092C06DD20460A38C4B220464130C4B223
:101A400002E020463030C4B235072D0F092D06DDE7
:101A500028460A38C5B228464130C5B202E02846B9
:101A60003030C5B22046FFF71BF92846FFF718F9BA
:101A700070BD0000FFF7DCF943488069012108438D
:101A80004149886141488069202108433F49886174
:101A90003D488069042108433B4988613B48806A8E
:101AA0001021084339498862FEF79EFD3648806957
:101AB000042108433449886135A0FFF797F82220B4
:101AC000FEF7B2FD0446214637A0FFF78FF80A2043
:101AD000FFF7D8FD0920C006806A202108430921AC
:101AE000C90688620846806A802108430921C90620
:101AF0008862254880690221084323498861084695
:101B0000806901210843204988612048806920219B
:101B100008431E4988611C488069042108431A490A
:101B20008861FEF7A7FE7F21002000F087F80721DB
:101B3000002000F0ADF80020FEF76AFE1248806A2F
:101B40000121C902084310498862FEF7F3FD1AE03B
:101B50000920C0060069C007C00F002811D10A483B
:101B600080692021084308498861FFF73FFB7D20F9
:101B70000001FFF77BFD0448806A202108430249E9
:101B80008862FFF707FBE3E700040048000800480D
:101B90000A54657374696E672C2048656C6C6F20FD
:101BA000576F726C642100000A74656D70203D20CF
:101BB0002564000070B500251220FFF797F8044651
:101BC000FFF7A8FD21461220FFF7AAF84020204089
:101BD00000281BD020202040002817D113A300226A
:101BE00004211046FEF7ACFF0020134908801320A3
:101BF000FFF77CF805461020FFF778F806463146D7
:101C00000D20FFF78DF8FFF791FD0CE00120FFF7A5
:101C10006DF8862807D000210D20FFF781F8862176
:101C20000120FFF77DF8284670BD0000536F6D65F9
:101C300074686E67210000000800002070B505463A
:101C40000C462120FEF7DEFD2846FEF7DBFD204690
:101C5000FEF7D8FD70BD70B504461B25782C06DC58
:101C600020462D380521FEF743FBC5B207E0F02CD6
:101C700005DC0A2120461E30FEF73AFBC5B2E80615
:101C8000C00E2022104301460B20FFF749F870BD1B
:101C900070B505460C462220FEF7B4FD2846FEF737
:101CA000B1FD2046FEF7AEFD70BD10B5044684219F
:101CB0004D20FFF735F86420FFF7CDFFA01E8022EE
:101CC0001043C1B20920FFF72BF810BD10B58021D9
:101CD0000120FFF725F810BD70B505460024114816
:101CE000806A022108430F4988620F48806A2021D8
:101CF00008430D49886200BF01E0601CC4B2642C37
:101D0000FBDB2846FEF719FC002401E0601CC4B28E
:101D1000642CFBDB03488069022108430149886188
:101D200070BD0000000400480008004870B505467A
:101D30001048806A022108430E4988620E48806973
:101D4000202108430C498861002401E0601C84B212
:101D5000642CFBDB2846FEF7F0FB002401E0601C4E
:101D600084B2642CFBDB03488069022108430149EB
:101D7000886170BD0004004800080048F8B50646B8
:101D80000F461448806A02210843124988621248AB
:101D900080692021084310498861002401E0601C0B
:101DA00084B2642CFBDB002504E0705DFEF7C5FB0C
:101DB000681C85B2BD42F8DB002401E0601C84B2DF
:101DC000642CFBDB034880690221084301498861D8
:101DD000F8BD0000000400480008004800000000B2
:101DE00000000000000000000000000000000000F3
:101DF00000000000000000000000000000000000E3
:101E00000000000000F0F0000000000000000000F2
:101E1000009F9F0000000000000000000001010082
:101E200000000000000000FCFC0000FCFC000000C2
:101E300000000000000000000000000000000000A2
:101E400000000000000000000000000080700000A2
:101E500000F00000001011F11F1111F11F1111010C
:101E600000000001000000010000000000E0E03080
:101E700010FC10107060000000E1C30306FF040CAA
:101E80008CF8700000000101010301010100000055
:101E9000E0F01010F0E00080E0301000010382E27A
:101EA000330DFEFD0404FCF80001010000000001F8
:101EB00001010100000000E0F0101010F0E000004F
:101EC0000070FC8D070E3BE1C1F81C000000000112
:101ED00001010101000101010000000000FCFC0003
:101EE00000000000000000000000000000000000F2
:101EF00000000000000000000000000000000000E2
:101F0000E0F01C04000000000000007FFF00000063
:101F10000000000000000000030F1C100000000083
:101F2000000000000C1CF0E00000000000000000B9
:101F3000000080FF7F00000000000000101C07036D
:101F40000000000000001030E07CE03010000000D5
:101F5000000000010000000100000000000000007F
:101F600000000000000000000000000000E0E000B1
:101F70000000000000020202027F7F020202020053
:101F80000000000000000000000000000000000051
:101F9000000000000000000000000000C0C0400081
:101FA000000000000000001E07010000000000000B
:101FB0000000000000000000000000000000000819
:101FC00008080808000000000000000000000000F1
:101FD0000000000000000000000000000000000001
:101FE0000000000000C0C000000000000000000071
:101FF000000101000000000000000000000080E07F
:10200000381C04000000C0F0380E0300000000007F
:102010000001010000000000000000000080E060FE
:102020001010101060E08000003FFFC000060600A6
:10203000C0FF3F000000000001010101000000009E
:10204000000040406020F0F00000000000000000B0
:102050000000FFFF0000000000000101010101017C
:10206000010101010040603010101030E0C000009C
:102070000080C06030181C0E070100000001010143
:10208000010101010101000000004060301010104A
:1020900030E0E000000060E08002020285FD780090
:1020A000000000000101010101000000000000002B
:1020B00000C070F0F000000000303826232020FF20
:1020C000FF202000000000000000000101000000CF
:1020D0000000F0F010101010101000000000C3C33A
:1020E0000301010183FE7C000000000001010101E9
:1020F000000000000080E0601010103020000000A0
:10210000003FFF8201010183FE7C0000000000000F
:1021100001010101000000000000101010101090DB
:10212000D070300000000000E0F83E070100000021
:1021300000000000010100000000000000E0E030AD
:1021400010101030E0E000000078FD8502020285EA
:10215000FD78000000000001010101010000000005
:1021600000C0E03010101030E08000000043C78C49
:10217000080888C4FF3F00000000000101010100C1
:10218000000000000000000000C0C00000000000CF
:102190000000000000C1C1000000000000000000BD
:1021A00000010100000000000000000000C0C000AD
:1021B000000000000000000000C1C100000000009D
:1021C000000000001E0700000000000000000000EA
:1021D000008080C0C0406000000E0E0B191130203E
:1021E00060604000000000000000000000000000EF
:1021F00000808080808080808080800000101010AF
:10220000101010101010100000000000000000005E
:1022100000000000006040C08080800000000000DE
:10222000004060203031191B0B0E0600000000003A
:10223000000000000000000080E06010101010306E
:10224000E0C000000000000090980C0603010000B0
:102250000000000001010000000000000080E0100C
:1022600088C4444484C830C000FF007EFF81806081
:10227000FF87403F000003040C0808080C0400001E
:1022800000000000E07070E00000000000E07C1F33
:10229000131010131F7CE00001010000000000007B
:1022A000000001010000F0F01010101030E0E0001C
:1022B0000000FFFF020202020385FC78000001011A
:1022C00001010101010100000080E06030101010E8
:1022D00030604000003F7FC08000000080E0400090
:1022E0000000000001010101010000000000F0F009
:1022F0001010103060C080000000FFFF0000008060
:10230000C07F3F0000000101010101010000000049
:102310000000F0F010101010101010000000FFFF6F
:10232000040404040404040000000101010101018B
:10233000010101010000F0F0101010101010100049
:102340000000FFFF04040404040404000000010171
:1023500000000000000000000080E060301010105D
:1023600030604000003F7FC08000040484FCFC001B
:102370000000000001010101010100000000F0F077
:102380000000000000F0F0000000FFFF0202020267
:1023900002FFFF0000000101000000000001010039
:1023A0000000101010F0F0101010000000000000ED
:1023B00000FFFF0000000000000001010101010119
:1023C000010100000000000000101010F0F00000FB
:1023D000000040E080000080FF7F0000000000005F
:1023E00001010101000000000000F0F0000000C049
:1023F000E07010000000FFFF0C060F1D70E0C00031
:102400000000010100000000000001010000F0F0E8
:1024100000000000000000000000FFFF00000000BE
:1024200000000000000001010101010101010100A3
:1024300000F0F070C00000C070F0F00000FFFF007E
:10244000031E1E0300FFFF0000010100000000004A
:10245000000101000000F0F0F0C0000000F0F0000A
:102460000000FFFF00030E78E0FFFF000000010105
:1024700000000000010101000080E0603010103019
:1024800060E08000003FFFC080000000C0FF3F0010
:102490000000000001010101000000000000F0F058
:1024A0001010101030E0C0000000FFFF08080808FE
:1024B0000C07030000000101000000000000000004
:1024C0000080E0603010103060E08000003FFFC00E
:1024D00000000000C0FF3F000000000101030F1DCD
:1024E000111010000000F0F01010101030E0C000CB
:1024F0000000FFFF04040C3CF6C381000000010152
:10250000000000000001010000C0E03010101010B9
:102510007060400000C1C3870606060C8CFC780082
:102520000000000101010101010000000010101075
:1025300010F0F010101010100000000000FFFF005D
:102540000000000000000000000101000000000089
:1025500000F0F00000000000F0F00000007FFF80BD
:1025600000000080FF7F0000000000010101010168
:102570000000000010F0E0000000000000E0F0109B
:102580000000031FF8C0C0F81F0300000000000097
:10259000000101000000000070F0000000000000D9
:1025A0000000F070001FFEC0FC0F0FFCC0FE3F00DB
:1025B000000001010000000001010000001070E0B7
:1025C00080000080E07010000080C070390F0F396B
:1025D00070C0800000010100000000000001010047
:1025E000003070C000000080C0F03000000000012A
:1025F00007FEFE07010000000000000000010100CE
:10260000000000000000101010101090D07030007A
:102610000080C0E0381C0703010000000001010138
:10262000010101010101010100000000FCFC0404A2
:102630000404000000000000FFFF00000000000094
:10264000000000001F1F10101010000000041C38B4
:10265000E0800000000000000000000000030E38D1
:10266000E0C00000000000000000000000010100C8
:10267000000004040404FCFC000000000000000052
:102680000000FFFF000000000000101010101F1FCE
:102690000000000000000000E03030E0000000001A
:1026A00000101C0701000001071C000000000000D2
:1026B000000000000000000000000000000000001A
:1026C000000000000000000000000000000000000A
:1026D00004040404040404040404040400000000CA
:1026E00004040810000000000000000000000000CA
:1026F00000000000000000000000000000000000DA
:10270000000080C0404040C08000000000F0F98C14
:1027100004048444FFFF00000000010101010000E7
:10272000000101010000FCFC80404040C08000002E
:102730000000FFFF8000000080FF7F00000001011B
:102740000001010101000000000080804040404085
:1027500080800000003EFF8000000000C1C100003A
:10276000000000000101010100000000000080C025
:1027700040404080FCFC0000007FFF8000000080A3
:10278000FFFF000000000001010101000101000045
:10279000000080C0404040C080000000003EFF8933
:1027A000080808088B8F00000000000101010101EA
:1027B00000000000004040F8F84C44444444040049
:1027C000000000FFFF00000000000000000000010A
:1027D0000100000000000000000080C04040408078
:1027E000C0C00000007FFF80000000C1FFFF0000AC
:1027F0000000081D111111180F0700000000FCFC5B
:1028000080404040C08000000000FFFF000000004A
:1028100000FFFF00000001010000000000010100B6
:102820000000404040CCCC00000000000000000050
:1028300000FFFF0000000000000101010101010193
:102840000101010000000040404040CCCC000000ED
:1028500000000000000000FFFF000000001010104A
:102860001010180F070000000000FCFC00000080A2
:10287000C04000000000FFFF180C3F73C080000044
:10288000000001010000000000010100000004043C
:1028900004FCFC00000000000000000000FFFF003E
:1028A000000000000001010101010101010101001E
:1028B00000C0C0C040C0804040C0800000FFFF009A
:1028C00000FFFF0000FFFF00000101000001010008
:1028D000000101000000C0C080404040C0C0800036
:1028E0000000FFFF0000000000FFFF0000000101EA
:1028F00000000000000101000000808040404040D6
:10290000C0800000003EFFC100000000C1FF3E008B
:102910000000000001010101000000000000C0C033
:1029200080404040C08000000000FFFF80000000A9
:1029300080FF7F0000001F1F000101010100000057
:10294000000080C040404080C0C00000007FFF8089
:1029500000000080FFFF00000000000101010100F5
:102960001F1F0000000000C08080C04040404000A9
:10297000000000FFFF010000000000000000000157
:102980000100000000000000000080C0404040C086
:10299000800000000000C78F0C0C1C18F8700000AD
:1029A00000000001010101010000000000004040A2
:1029B000F0F040404040000000000000FFFF000039
:1029C0000000000000000000000101010101000002
:1029D0000000C0C00000000000C0C0000000FFFFF9
:1029E0008000000080FFFF000000000101010101E4
:1029F0000001010000C0C0000000000000C0C000D5
:102A00000000071FF8C0C0F81F070000000000000A
:102A10000001010000000000C0C000000000000034
:102A20000000C040017FF8E07C061EF080FF1F0020
:102A30000000010100000000010100000040C08012
:102A40000000000080C00000000080E1771C1E77BD
:102A5000E180000000010100000000000001010011
:102A60000040C000000000000080C0400000030FD4
:102A70003CE080F03C07010000001010180F070038
:102A8000000000000000404040404040C0C0000046
:102A90000080C0E0701C0E07010000000001010171
:102AA00001010101010100000000000000F8FC0428
:102AB000040404000000080814F7E300000000000C
:102AC00000000000000F1F10101010000000000098
:102AD00000FCFC00000000000000000000FFFF0000
:102AE0000000000000000000001F1F0000000000A8
:102AF000000004040404FCF80000000000000000D2
:102B00000000E3F7140808000000101010101F0F59
:102B100000000000000000000000000000000000B5
:102B20000002020202020404040404000000000087
:102B30000000000000000000000000000000000095
:102B40000000000000FC0404040404FC0000000079
:102B5000000101010101010100000000000000006E
:102B6000000000000102030406070809000000003D
:102B700001020304942B000800000020180000004C
:102B8000FC000008AC2B00081800002060070000C3
:102B90001801000800000000000000000000000014
:0C2BA000000000000000000000127A009D
:040000050800015D91
:00000001FF
